{
	"contracts/ShivamRainCoin.sol": {
		"MyToken": {
			"abi": [
				{
					"inputs": [],
					"stateMutability": "nonpayable",
					"type": "constructor"
				},
				{
					"inputs": [
						{
							"internalType": "address",
							"name": "",
							"type": "address"
						}
					],
					"name": "balances",
					"outputs": [
						{
							"internalType": "uint256",
							"name": "",
							"type": "uint256"
						}
					],
					"stateMutability": "view",
					"type": "function"
				},
				{
					"inputs": [
						{
							"internalType": "uint256",
							"name": "amount",
							"type": "uint256"
						}
					],
					"name": "burn",
					"outputs": [],
					"stateMutability": "nonpayable",
					"type": "function"
				},
				{
					"inputs": [
						{
							"internalType": "address",
							"name": "to",
							"type": "address"
						},
						{
							"internalType": "uint256",
							"name": "amount",
							"type": "uint256"
						}
					],
					"name": "mint",
					"outputs": [],
					"stateMutability": "nonpayable",
					"type": "function"
				},
				{
					"inputs": [],
					"name": "name",
					"outputs": [
						{
							"internalType": "string",
							"name": "",
							"type": "string"
						}
					],
					"stateMutability": "view",
					"type": "function"
				},
				{
					"inputs": [],
					"name": "owner",
					"outputs": [
						{
							"internalType": "address",
							"name": "",
							"type": "address"
						}
					],
					"stateMutability": "view",
					"type": "function"
				},
				{
					"inputs": [],
					"name": "symbol",
					"outputs": [
						{
							"internalType": "string",
							"name": "",
							"type": "string"
						}
					],
					"stateMutability": "view",
					"type": "function"
				},
				{
					"inputs": [],
					"name": "totalSupply",
					"outputs": [
						{
							"internalType": "uint256",
							"name": "",
							"type": "uint256"
						}
					],
					"stateMutability": "view",
					"type": "function"
				},
				{
					"inputs": [
						{
							"internalType": "address",
							"name": "to",
							"type": "address"
						},
						{
							"internalType": "uint256",
							"name": "amount",
							"type": "uint256"
						}
					],
					"name": "transfer",
					"outputs": [],
					"stateMutability": "nonpayable",
					"type": "function"
				},
				{
					"inputs": [
						{
							"internalType": "address",
							"name": "from",
							"type": "address"
						},
						{
							"internalType": "address",
							"name": "to",
							"type": "address"
						},
						{
							"internalType": "uint256",
							"name": "amount",
							"type": "uint256"
						}
					],
					"name": "transferFrom",
					"outputs": [],
					"stateMutability": "nonpayable",
					"type": "function"
				}
			],
			"devdoc": {
				"kind": "dev",
				"methods": {},
				"version": 1
			},
			"evm": {
				"assembly": "    /* \"contracts/ShivamRainCoin.sol\":555:2394  contract MyToken {... */\n  mstore(0x40, 0x80)\n    /* \"contracts/ShivamRainCoin.sol\":872:1028  constructor() {... */\n  callvalue\n  dup1\n  iszero\n  tag_1\n  jumpi\n  0x00\n  dup1\n  revert\ntag_1:\n  pop\n    /* \"contracts/ShivamRainCoin.sol\":896:914  name = \"AlphaCoin\" */\n  mload(0x40)\n  dup1\n  0x40\n  add\n  0x40\n  mstore\n  dup1\n  0x09\n  dup2\n  mstore\n  0x20\n  add\n  0x416c706861436f696e0000000000000000000000000000000000000000000000\n  dup2\n  mstore\n  pop\n    /* \"contracts/ShivamRainCoin.sol\":896:900  name */\n  0x00\n    /* \"contracts/ShivamRainCoin.sol\":896:914  name = \"AlphaCoin\" */\n  swap1\n  dup2\n  tag_4\n  swap2\n  swap1\n  tag_5\n  jump\t// in\ntag_4:\n  pop\n    /* \"contracts/ShivamRainCoin.sol\":924:938  symbol = \"ASG\" */\n  mload(0x40)\n  dup1\n  0x40\n  add\n  0x40\n  mstore\n  dup1\n  0x03\n  dup2\n  mstore\n  0x20\n  add\n  0x4153470000000000000000000000000000000000000000000000000000000000\n  dup2\n  mstore\n  pop\n    /* \"contracts/ShivamRainCoin.sol\":924:930  symbol */\n  0x01\n    /* \"contracts/ShivamRainCoin.sol\":924:938  symbol = \"ASG\" */\n  swap1\n  dup2\n  tag_6\n  swap2\n  swap1\n  tag_5\n  jump\t// in\ntag_6:\n  pop\n    /* \"contracts/ShivamRainCoin.sol\":956:966  msg.sender */\n  caller\n    /* \"contracts/ShivamRainCoin.sol\":948:953  owner */\n  0x04\n  0x00\n    /* \"contracts/ShivamRainCoin.sol\":948:966  owner = msg.sender */\n  0x0100\n  exp\n  dup2\n  sload\n  dup2\n  0xffffffffffffffffffffffffffffffffffffffff\n  mul\n  not\n  and\n  swap1\n  dup4\n  0xffffffffffffffffffffffffffffffffffffffff\n  and\n  mul\n  or\n  swap1\n  sstore\n  pop\n    /* \"contracts/ShivamRainCoin.sol\":555:2394  contract MyToken {... */\n  jump(tag_7)\n    /* \"#utility.yul\":7:106   */\ntag_8:\n    /* \"#utility.yul\":59:65   */\n  0x00\n    /* \"#utility.yul\":93:98   */\n  dup2\n    /* \"#utility.yul\":87:99   */\n  mload\n    /* \"#utility.yul\":77:99   */\n  swap1\n  pop\n    /* \"#utility.yul\":7:106   */\n  swap2\n  swap1\n  pop\n  jump\t// out\n    /* \"#utility.yul\":112:292   */\ntag_9:\n    /* \"#utility.yul\":160:237   */\n  0x4e487b7100000000000000000000000000000000000000000000000000000000\n    /* \"#utility.yul\":157:158   */\n  0x00\n    /* \"#utility.yul\":150:238   */\n  mstore\n    /* \"#utility.yul\":257:261   */\n  0x41\n    /* \"#utility.yul\":254:255   */\n  0x04\n    /* \"#utility.yul\":247:262   */\n  mstore\n    /* \"#utility.yul\":281:285   */\n  0x24\n    /* \"#utility.yul\":278:279   */\n  0x00\n    /* \"#utility.yul\":271:286   */\n  revert\n    /* \"#utility.yul\":298:478   */\ntag_10:\n    /* \"#utility.yul\":346:423   */\n  0x4e487b7100000000000000000000000000000000000000000000000000000000\n    /* \"#utility.yul\":343:344   */\n  0x00\n    /* \"#utility.yul\":336:424   */\n  mstore\n    /* \"#utility.yul\":443:447   */\n  0x22\n    /* \"#utility.yul\":440:441   */\n  0x04\n    /* \"#utility.yul\":433:448   */\n  mstore\n    /* \"#utility.yul\":467:471   */\n  0x24\n    /* \"#utility.yul\":464:465   */\n  0x00\n    /* \"#utility.yul\":457:472   */\n  revert\n    /* \"#utility.yul\":484:804   */\ntag_11:\n    /* \"#utility.yul\":528:534   */\n  0x00\n    /* \"#utility.yul\":565:566   */\n  0x02\n    /* \"#utility.yul\":559:563   */\n  dup3\n    /* \"#utility.yul\":555:567   */\n  div\n    /* \"#utility.yul\":545:567   */\n  swap1\n  pop\n    /* \"#utility.yul\":612:613   */\n  0x01\n    /* \"#utility.yul\":606:610   */\n  dup3\n    /* \"#utility.yul\":602:614   */\n  and\n    /* \"#utility.yul\":633:651   */\n  dup1\n    /* \"#utility.yul\":623:704   */\n  tag_33\n  jumpi\n    /* \"#utility.yul\":689:693   */\n  0x7f\n    /* \"#utility.yul\":681:687   */\n  dup3\n    /* \"#utility.yul\":677:694   */\n  and\n    /* \"#utility.yul\":667:694   */\n  swap2\n  pop\n    /* \"#utility.yul\":623:704   */\ntag_33:\n    /* \"#utility.yul\":751:753   */\n  0x20\n    /* \"#utility.yul\":743:749   */\n  dup3\n    /* \"#utility.yul\":740:754   */\n  lt\n    /* \"#utility.yul\":720:738   */\n  dup2\n    /* \"#utility.yul\":717:755   */\n  sub\n    /* \"#utility.yul\":714:798   */\n  tag_34\n  jumpi\n    /* \"#utility.yul\":770:788   */\n  tag_35\n  tag_10\n  jump\t// in\ntag_35:\n    /* \"#utility.yul\":714:798   */\ntag_34:\n    /* \"#utility.yul\":535:804   */\n  pop\n    /* \"#utility.yul\":484:804   */\n  swap2\n  swap1\n  pop\n  jump\t// out\n    /* \"#utility.yul\":810:951   */\ntag_12:\n    /* \"#utility.yul\":859:863   */\n  0x00\n    /* \"#utility.yul\":882:885   */\n  dup2\n    /* \"#utility.yul\":874:885   */\n  swap1\n  pop\n    /* \"#utility.yul\":905:908   */\n  dup2\n    /* \"#utility.yul\":902:903   */\n  0x00\n    /* \"#utility.yul\":895:909   */\n  mstore\n    /* \"#utility.yul\":939:943   */\n  0x20\n    /* \"#utility.yul\":936:937   */\n  0x00\n    /* \"#utility.yul\":926:944   */\n  keccak256\n    /* \"#utility.yul\":918:944   */\n  swap1\n  pop\n    /* \"#utility.yul\":810:951   */\n  swap2\n  swap1\n  pop\n  jump\t// out\n    /* \"#utility.yul\":957:1050   */\ntag_13:\n    /* \"#utility.yul\":994:1000   */\n  0x00\n    /* \"#utility.yul\":1041:1043   */\n  0x20\n    /* \"#utility.yul\":1036:1038   */\n  0x1f\n    /* \"#utility.yul\":1029:1034   */\n  dup4\n    /* \"#utility.yul\":1025:1039   */\n  add\n    /* \"#utility.yul\":1021:1044   */\n  div\n    /* \"#utility.yul\":1011:1044   */\n  swap1\n  pop\n    /* \"#utility.yul\":957:1050   */\n  swap2\n  swap1\n  pop\n  jump\t// out\n    /* \"#utility.yul\":1056:1163   */\ntag_14:\n    /* \"#utility.yul\":1100:1108   */\n  0x00\n    /* \"#utility.yul\":1150:1155   */\n  dup3\n    /* \"#utility.yul\":1144:1148   */\n  dup3\n    /* \"#utility.yul\":1140:1156   */\n  shl\n    /* \"#utility.yul\":1119:1156   */\n  swap1\n  pop\n    /* \"#utility.yul\":1056:1163   */\n  swap3\n  swap2\n  pop\n  pop\n  jump\t// out\n    /* \"#utility.yul\":1169:1562   */\ntag_15:\n    /* \"#utility.yul\":1238:1244   */\n  0x00\n    /* \"#utility.yul\":1288:1289   */\n  0x08\n    /* \"#utility.yul\":1276:1286   */\n  dup4\n    /* \"#utility.yul\":1272:1290   */\n  mul\n    /* \"#utility.yul\":1311:1408   */\n  tag_40\n    /* \"#utility.yul\":1341:1407   */\n  0xffffffffffffffffffffffffffffffffffffffffffffffffffffffffffffffff\n    /* \"#utility.yul\":1330:1339   */\n  dup3\n    /* \"#utility.yul\":1311:1408   */\n  tag_14\n  jump\t// in\ntag_40:\n    /* \"#utility.yul\":1429:1468   */\n  tag_41\n    /* \"#utility.yul\":1459:1467   */\n  dup7\n    /* \"#utility.yul\":1448:1457   */\n  dup4\n    /* \"#utility.yul\":1429:1468   */\n  tag_14\n  jump\t// in\ntag_41:\n    /* \"#utility.yul\":1417:1468   */\n  swap6\n  pop\n    /* \"#utility.yul\":1501:1505   */\n  dup1\n    /* \"#utility.yul\":1497:1506   */\n  not\n    /* \"#utility.yul\":1490:1495   */\n  dup5\n    /* \"#utility.yul\":1486:1507   */\n  and\n    /* \"#utility.yul\":1477:1507   */\n  swap4\n  pop\n    /* \"#utility.yul\":1550:1554   */\n  dup1\n    /* \"#utility.yul\":1540:1548   */\n  dup7\n    /* \"#utility.yul\":1536:1555   */\n  and\n    /* \"#utility.yul\":1529:1534   */\n  dup5\n    /* \"#utility.yul\":1526:1556   */\n  or\n    /* \"#utility.yul\":1516:1556   */\n  swap3\n  pop\n    /* \"#utility.yul\":1245:1562   */\n  pop\n  pop\n    /* \"#utility.yul\":1169:1562   */\n  swap4\n  swap3\n  pop\n  pop\n  pop\n  jump\t// out\n    /* \"#utility.yul\":1568:1645   */\ntag_16:\n    /* \"#utility.yul\":1605:1612   */\n  0x00\n    /* \"#utility.yul\":1634:1639   */\n  dup2\n    /* \"#utility.yul\":1623:1639   */\n  swap1\n  pop\n    /* \"#utility.yul\":1568:1645   */\n  swap2\n  swap1\n  pop\n  jump\t// out\n    /* \"#utility.yul\":1651:1711   */\ntag_17:\n    /* \"#utility.yul\":1679:1682   */\n  0x00\n    /* \"#utility.yul\":1700:1705   */\n  dup2\n    /* \"#utility.yul\":1693:1705   */\n  swap1\n  pop\n    /* \"#utility.yul\":1651:1711   */\n  swap2\n  swap1\n  pop\n  jump\t// out\n    /* \"#utility.yul\":1717:1859   */\ntag_18:\n    /* \"#utility.yul\":1767:1776   */\n  0x00\n    /* \"#utility.yul\":1800:1853   */\n  tag_45\n    /* \"#utility.yul\":1818:1852   */\n  tag_46\n    /* \"#utility.yul\":1827:1851   */\n  tag_47\n    /* \"#utility.yul\":1845:1850   */\n  dup5\n    /* \"#utility.yul\":1827:1851   */\n  tag_16\n  jump\t// in\ntag_47:\n    /* \"#utility.yul\":1818:1852   */\n  tag_17\n  jump\t// in\ntag_46:\n    /* \"#utility.yul\":1800:1853   */\n  tag_16\n  jump\t// in\ntag_45:\n    /* \"#utility.yul\":1787:1853   */\n  swap1\n  pop\n    /* \"#utility.yul\":1717:1859   */\n  swap2\n  swap1\n  pop\n  jump\t// out\n    /* \"#utility.yul\":1865:1940   */\ntag_19:\n    /* \"#utility.yul\":1908:1911   */\n  0x00\n    /* \"#utility.yul\":1929:1934   */\n  dup2\n    /* \"#utility.yul\":1922:1934   */\n  swap1\n  pop\n    /* \"#utility.yul\":1865:1940   */\n  swap2\n  swap1\n  pop\n  jump\t// out\n    /* \"#utility.yul\":1946:2215   */\ntag_20:\n    /* \"#utility.yul\":2056:2095   */\n  tag_50\n    /* \"#utility.yul\":2087:2094   */\n  dup4\n    /* \"#utility.yul\":2056:2095   */\n  tag_18\n  jump\t// in\ntag_50:\n    /* \"#utility.yul\":2117:2208   */\n  tag_51\n    /* \"#utility.yul\":2166:2207   */\n  tag_52\n    /* \"#utility.yul\":2190:2206   */\n  dup3\n    /* \"#utility.yul\":2166:2207   */\n  tag_19\n  jump\t// in\ntag_52:\n    /* \"#utility.yul\":2158:2164   */\n  dup5\n    /* \"#utility.yul\":2151:2155   */\n  dup5\n    /* \"#utility.yul\":2145:2156   */\n  sload\n    /* \"#utility.yul\":2117:2208   */\n  tag_15\n  jump\t// in\ntag_51:\n    /* \"#utility.yul\":2111:2115   */\n  dup3\n    /* \"#utility.yul\":2104:2209   */\n  sstore\n    /* \"#utility.yul\":2022:2215   */\n  pop\n    /* \"#utility.yul\":1946:2215   */\n  pop\n  pop\n  pop\n  jump\t// out\n    /* \"#utility.yul\":2221:2294   */\ntag_21:\n    /* \"#utility.yul\":2266:2269   */\n  0x00\n    /* \"#utility.yul\":2221:2294   */\n  swap1\n  jump\t// out\n    /* \"#utility.yul\":2300:2489   */\ntag_22:\n    /* \"#utility.yul\":2377:2409   */\n  tag_55\n  tag_21\n  jump\t// in\ntag_55:\n    /* \"#utility.yul\":2418:2483   */\n  tag_56\n    /* \"#utility.yul\":2476:2482   */\n  dup2\n    /* \"#utility.yul\":2468:2474   */\n  dup5\n    /* \"#utility.yul\":2462:2466   */\n  dup5\n    /* \"#utility.yul\":2418:2483   */\n  tag_20\n  jump\t// in\ntag_56:\n    /* \"#utility.yul\":2353:2489   */\n  pop\n    /* \"#utility.yul\":2300:2489   */\n  pop\n  pop\n  jump\t// out\n    /* \"#utility.yul\":2495:2681   */\ntag_23:\n    /* \"#utility.yul\":2555:2675   */\ntag_58:\n    /* \"#utility.yul\":2572:2575   */\n  dup2\n    /* \"#utility.yul\":2565:2570   */\n  dup2\n    /* \"#utility.yul\":2562:2576   */\n  lt\n    /* \"#utility.yul\":2555:2675   */\n  iszero\n  tag_60\n  jumpi\n    /* \"#utility.yul\":2626:2665   */\n  tag_61\n    /* \"#utility.yul\":2663:2664   */\n  0x00\n    /* \"#utility.yul\":2656:2661   */\n  dup3\n    /* \"#utility.yul\":2626:2665   */\n  tag_22\n  jump\t// in\ntag_61:\n    /* \"#utility.yul\":2599:2600   */\n  0x01\n    /* \"#utility.yul\":2592:2597   */\n  dup2\n    /* \"#utility.yul\":2588:2601   */\n  add\n    /* \"#utility.yul\":2579:2601   */\n  swap1\n  pop\n    /* \"#utility.yul\":2555:2675   */\n  jump(tag_58)\ntag_60:\n    /* \"#utility.yul\":2495:2681   */\n  pop\n  pop\n  jump\t// out\n    /* \"#utility.yul\":2687:3230   */\ntag_24:\n    /* \"#utility.yul\":2788:2790   */\n  0x1f\n    /* \"#utility.yul\":2783:2786   */\n  dup3\n    /* \"#utility.yul\":2780:2791   */\n  gt\n    /* \"#utility.yul\":2777:3223   */\n  iszero\n  tag_63\n  jumpi\n    /* \"#utility.yul\":2822:2860   */\n  tag_64\n    /* \"#utility.yul\":2854:2859   */\n  dup2\n    /* \"#utility.yul\":2822:2860   */\n  tag_12\n  jump\t// in\ntag_64:\n    /* \"#utility.yul\":2906:2935   */\n  tag_65\n    /* \"#utility.yul\":2924:2934   */\n  dup5\n    /* \"#utility.yul\":2906:2935   */\n  tag_13\n  jump\t// in\ntag_65:\n    /* \"#utility.yul\":2896:2904   */\n  dup2\n    /* \"#utility.yul\":2892:2936   */\n  add\n    /* \"#utility.yul\":3089:3091   */\n  0x20\n    /* \"#utility.yul\":3077:3087   */\n  dup6\n    /* \"#utility.yul\":3074:3092   */\n  lt\n    /* \"#utility.yul\":3071:3120   */\n  iszero\n  tag_66\n  jumpi\n    /* \"#utility.yul\":3110:3118   */\n  dup2\n    /* \"#utility.yul\":3095:3118   */\n  swap1\n  pop\n    /* \"#utility.yul\":3071:3120   */\ntag_66:\n    /* \"#utility.yul\":3133:3213   */\n  tag_67\n    /* \"#utility.yul\":3189:3211   */\n  tag_68\n    /* \"#utility.yul\":3207:3210   */\n  dup6\n    /* \"#utility.yul\":3189:3211   */\n  tag_13\n  jump\t// in\ntag_68:\n    /* \"#utility.yul\":3179:3187   */\n  dup4\n    /* \"#utility.yul\":3175:3212   */\n  add\n    /* \"#utility.yul\":3162:3173   */\n  dup3\n    /* \"#utility.yul\":3133:3213   */\n  tag_23\n  jump\t// in\ntag_67:\n    /* \"#utility.yul\":2792:3223   */\n  pop\n  pop\n    /* \"#utility.yul\":2777:3223   */\ntag_63:\n    /* \"#utility.yul\":2687:3230   */\n  pop\n  pop\n  pop\n  jump\t// out\n    /* \"#utility.yul\":3236:3353   */\ntag_25:\n    /* \"#utility.yul\":3290:3298   */\n  0x00\n    /* \"#utility.yul\":3340:3345   */\n  dup3\n    /* \"#utility.yul\":3334:3338   */\n  dup3\n    /* \"#utility.yul\":3330:3346   */\n  shr\n    /* \"#utility.yul\":3309:3346   */\n  swap1\n  pop\n    /* \"#utility.yul\":3236:3353   */\n  swap3\n  swap2\n  pop\n  pop\n  jump\t// out\n    /* \"#utility.yul\":3359:3528   */\ntag_26:\n    /* \"#utility.yul\":3403:3409   */\n  0x00\n    /* \"#utility.yul\":3436:3487   */\n  tag_71\n    /* \"#utility.yul\":3484:3485   */\n  0x00\n    /* \"#utility.yul\":3480:3486   */\n  not\n    /* \"#utility.yul\":3472:3477   */\n  dup5\n    /* \"#utility.yul\":3469:3470   */\n  0x08\n    /* \"#utility.yul\":3465:3478   */\n  mul\n    /* \"#utility.yul\":3436:3487   */\n  tag_25\n  jump\t// in\ntag_71:\n    /* \"#utility.yul\":3432:3488   */\n  not\n    /* \"#utility.yul\":3517:3521   */\n  dup1\n    /* \"#utility.yul\":3511:3515   */\n  dup4\n    /* \"#utility.yul\":3507:3522   */\n  and\n    /* \"#utility.yul\":3497:3522   */\n  swap2\n  pop\n    /* \"#utility.yul\":3410:3528   */\n  pop\n    /* \"#utility.yul\":3359:3528   */\n  swap3\n  swap2\n  pop\n  pop\n  jump\t// out\n    /* \"#utility.yul\":3533:3828   */\ntag_27:\n    /* \"#utility.yul\":3609:3613   */\n  0x00\n    /* \"#utility.yul\":3755:3784   */\n  tag_73\n    /* \"#utility.yul\":3780:3783   */\n  dup4\n    /* \"#utility.yul\":3774:3778   */\n  dup4\n    /* \"#utility.yul\":3755:3784   */\n  tag_26\n  jump\t// in\ntag_73:\n    /* \"#utility.yul\":3747:3784   */\n  swap2\n  pop\n    /* \"#utility.yul\":3817:3820   */\n  dup3\n    /* \"#utility.yul\":3814:3815   */\n  0x02\n    /* \"#utility.yul\":3810:3821   */\n  mul\n    /* \"#utility.yul\":3804:3808   */\n  dup3\n    /* \"#utility.yul\":3801:3822   */\n  or\n    /* \"#utility.yul\":3793:3822   */\n  swap1\n  pop\n    /* \"#utility.yul\":3533:3828   */\n  swap3\n  swap2\n  pop\n  pop\n  jump\t// out\n    /* \"#utility.yul\":3833:5228   */\ntag_5:\n    /* \"#utility.yul\":3950:3987   */\n  tag_75\n    /* \"#utility.yul\":3983:3986   */\n  dup3\n    /* \"#utility.yul\":3950:3987   */\n  tag_8\n  jump\t// in\ntag_75:\n    /* \"#utility.yul\":4052:4070   */\n  0xffffffffffffffff\n    /* \"#utility.yul\":4044:4050   */\n  dup2\n    /* \"#utility.yul\":4041:4071   */\n  gt\n    /* \"#utility.yul\":4038:4094   */\n  iszero\n  tag_76\n  jumpi\n    /* \"#utility.yul\":4074:4092   */\n  tag_77\n  tag_9\n  jump\t// in\ntag_77:\n    /* \"#utility.yul\":4038:4094   */\ntag_76:\n    /* \"#utility.yul\":4118:4156   */\n  tag_78\n    /* \"#utility.yul\":4150:4154   */\n  dup3\n    /* \"#utility.yul\":4144:4155   */\n  sload\n    /* \"#utility.yul\":4118:4156   */\n  tag_11\n  jump\t// in\ntag_78:\n    /* \"#utility.yul\":4203:4270   */\n  tag_79\n    /* \"#utility.yul\":4263:4269   */\n  dup3\n    /* \"#utility.yul\":4255:4261   */\n  dup3\n    /* \"#utility.yul\":4249:4253   */\n  dup6\n    /* \"#utility.yul\":4203:4270   */\n  tag_24\n  jump\t// in\ntag_79:\n    /* \"#utility.yul\":4297:4298   */\n  0x00\n    /* \"#utility.yul\":4321:4325   */\n  0x20\n    /* \"#utility.yul\":4308:4325   */\n  swap1\n  pop\n    /* \"#utility.yul\":4353:4355   */\n  0x1f\n    /* \"#utility.yul\":4345:4351   */\n  dup4\n    /* \"#utility.yul\":4342:4356   */\n  gt\n    /* \"#utility.yul\":4370:4371   */\n  0x01\n    /* \"#utility.yul\":4365:4983   */\n  dup2\n  eq\n  tag_81\n  jumpi\n    /* \"#utility.yul\":5027:5028   */\n  0x00\n    /* \"#utility.yul\":5044:5050   */\n  dup5\n    /* \"#utility.yul\":5041:5118   */\n  iszero\n  tag_82\n  jumpi\n    /* \"#utility.yul\":5093:5102   */\n  dup3\n    /* \"#utility.yul\":5088:5091   */\n  dup8\n    /* \"#utility.yul\":5084:5103   */\n  add\n    /* \"#utility.yul\":5078:5104   */\n  mload\n    /* \"#utility.yul\":5069:5104   */\n  swap1\n  pop\n    /* \"#utility.yul\":5041:5118   */\ntag_82:\n    /* \"#utility.yul\":5144:5211   */\n  tag_83\n    /* \"#utility.yul\":5204:5210   */\n  dup6\n    /* \"#utility.yul\":5197:5202   */\n  dup3\n    /* \"#utility.yul\":5144:5211   */\n  tag_27\n  jump\t// in\ntag_83:\n    /* \"#utility.yul\":5138:5142   */\n  dup7\n    /* \"#utility.yul\":5131:5212   */\n  sstore\n    /* \"#utility.yul\":5000:5222   */\n  pop\n    /* \"#utility.yul\":4335:5222   */\n  jump(tag_80)\n    /* \"#utility.yul\":4365:4983   */\ntag_81:\n    /* \"#utility.yul\":4417:4421   */\n  0x1f\n    /* \"#utility.yul\":4413:4422   */\n  not\n    /* \"#utility.yul\":4405:4411   */\n  dup5\n    /* \"#utility.yul\":4401:4423   */\n  and\n    /* \"#utility.yul\":4451:4488   */\n  tag_84\n    /* \"#utility.yul\":4483:4487   */\n  dup7\n    /* \"#utility.yul\":4451:4488   */\n  tag_12\n  jump\t// in\ntag_84:\n    /* \"#utility.yul\":4510:4511   */\n  0x00\n    /* \"#utility.yul\":4524:4732   */\ntag_85:\n    /* \"#utility.yul\":4538:4545   */\n  dup3\n    /* \"#utility.yul\":4535:4536   */\n  dup2\n    /* \"#utility.yul\":4532:4546   */\n  lt\n    /* \"#utility.yul\":4524:4732   */\n  iszero\n  tag_87\n  jumpi\n    /* \"#utility.yul\":4617:4626   */\n  dup5\n    /* \"#utility.yul\":4612:4615   */\n  dup10\n    /* \"#utility.yul\":4608:4627   */\n  add\n    /* \"#utility.yul\":4602:4628   */\n  mload\n    /* \"#utility.yul\":4594:4600   */\n  dup3\n    /* \"#utility.yul\":4587:4629   */\n  sstore\n    /* \"#utility.yul\":4668:4669   */\n  0x01\n    /* \"#utility.yul\":4660:4666   */\n  dup3\n    /* \"#utility.yul\":4656:4670   */\n  add\n    /* \"#utility.yul\":4646:4670   */\n  swap2\n  pop\n    /* \"#utility.yul\":4715:4717   */\n  0x20\n    /* \"#utility.yul\":4704:4713   */\n  dup6\n    /* \"#utility.yul\":4700:4718   */\n  add\n    /* \"#utility.yul\":4687:4718   */\n  swap5\n  pop\n    /* \"#utility.yul\":4561:4565   */\n  0x20\n    /* \"#utility.yul\":4558:4559   */\n  dup2\n    /* \"#utility.yul\":4554:4566   */\n  add\n    /* \"#utility.yul\":4549:4566   */\n  swap1\n  pop\n    /* \"#utility.yul\":4524:4732   */\n  jump(tag_85)\ntag_87:\n    /* \"#utility.yul\":4760:4766   */\n  dup7\n    /* \"#utility.yul\":4751:4758   */\n  dup4\n    /* \"#utility.yul\":4748:4767   */\n  lt\n    /* \"#utility.yul\":4745:4924   */\n  iszero\n  tag_88\n  jumpi\n    /* \"#utility.yul\":4818:4827   */\n  dup5\n    /* \"#utility.yul\":4813:4816   */\n  dup10\n    /* \"#utility.yul\":4809:4828   */\n  add\n    /* \"#utility.yul\":4803:4829   */\n  mload\n    /* \"#utility.yul\":4861:4909   */\n  tag_89\n    /* \"#utility.yul\":4903:4907   */\n  0x1f\n    /* \"#utility.yul\":4895:4901   */\n  dup10\n    /* \"#utility.yul\":4891:4908   */\n  and\n    /* \"#utility.yul\":4880:4889   */\n  dup3\n    /* \"#utility.yul\":4861:4909   */\n  tag_26\n  jump\t// in\ntag_89:\n    /* \"#utility.yul\":4853:4859   */\n  dup4\n    /* \"#utility.yul\":4846:4910   */\n  sstore\n    /* \"#utility.yul\":4768:4924   */\n  pop\n    /* \"#utility.yul\":4745:4924   */\ntag_88:\n    /* \"#utility.yul\":4970:4971   */\n  0x01\n    /* \"#utility.yul\":4966:4967   */\n  0x02\n    /* \"#utility.yul\":4958:4964   */\n  dup9\n    /* \"#utility.yul\":4954:4968   */\n  mul\n    /* \"#utility.yul\":4950:4972   */\n  add\n    /* \"#utility.yul\":4944:4948   */\n  dup9\n    /* \"#utility.yul\":4937:4973   */\n  sstore\n    /* \"#utility.yul\":4372:4983   */\n  pop\n  pop\n  pop\n    /* \"#utility.yul\":4335:5222   */\ntag_80:\n  pop\n    /* \"#utility.yul\":3925:5228   */\n  pop\n  pop\n  pop\n    /* \"#utility.yul\":3833:5228   */\n  pop\n  pop\n  jump\t// out\n    /* \"contracts/ShivamRainCoin.sol\":555:2394  contract MyToken {... */\ntag_7:\n  dataSize(sub_0)\n  dup1\n  dataOffset(sub_0)\n  0x00\n  codecopy\n  0x00\n  return\nstop\n\nsub_0: assembly {\n        /* \"contracts/ShivamRainCoin.sol\":555:2394  contract MyToken {... */\n      mstore(0x40, 0x80)\n      callvalue\n      dup1\n      iszero\n      tag_1\n      jumpi\n      0x00\n      dup1\n      revert\n    tag_1:\n      pop\n      jumpi(tag_2, lt(calldatasize, 0x04))\n      shr(0xe0, calldataload(0x00))\n      dup1\n      0x40c10f19\n      gt\n      tag_12\n      jumpi\n      dup1\n      0x40c10f19\n      eq\n      tag_7\n      jumpi\n      dup1\n      0x42966c68\n      eq\n      tag_8\n      jumpi\n      dup1\n      0x8da5cb5b\n      eq\n      tag_9\n      jumpi\n      dup1\n      0x95d89b41\n      eq\n      tag_10\n      jumpi\n      dup1\n      0xa9059cbb\n      eq\n      tag_11\n      jumpi\n      jump(tag_2)\n    tag_12:\n      dup1\n      0x06fdde03\n      eq\n      tag_3\n      jumpi\n      dup1\n      0x18160ddd\n      eq\n      tag_4\n      jumpi\n      dup1\n      0x23b872dd\n      eq\n      tag_5\n      jumpi\n      dup1\n      0x27e235e3\n      eq\n      tag_6\n      jumpi\n    tag_2:\n      0x00\n      dup1\n      revert\n        /* \"contracts/ShivamRainCoin.sol\":578:596  string public name */\n    tag_3:\n      tag_13\n      tag_14\n      jump\t// in\n    tag_13:\n      mload(0x40)\n      tag_15\n      swap2\n      swap1\n      tag_16\n      jump\t// in\n    tag_15:\n      mload(0x40)\n      dup1\n      swap2\n      sub\n      swap1\n      return\n        /* \"contracts/ShivamRainCoin.sol\":628:654  uint256 public totalSupply */\n    tag_4:\n      tag_17\n      tag_18\n      jump\t// in\n    tag_17:\n      mload(0x40)\n      tag_19\n      swap2\n      swap1\n      tag_20\n      jump\t// in\n    tag_19:\n      mload(0x40)\n      dup1\n      swap2\n      sub\n      swap1\n      return\n        /* \"contracts/ShivamRainCoin.sol\":1486:2006  function transferFrom(address from, address to, uint256 amount) external {... */\n    tag_5:\n      tag_21\n      0x04\n      dup1\n      calldatasize\n      sub\n      dup2\n      add\n      swap1\n      tag_22\n      swap2\n      swap1\n      tag_23\n      jump\t// in\n    tag_22:\n      tag_24\n      jump\t// in\n    tag_21:\n      stop\n        /* \"contracts/ShivamRainCoin.sol\":660:703  mapping(address => uint256) public balances */\n    tag_6:\n      tag_25\n      0x04\n      dup1\n      calldatasize\n      sub\n      dup2\n      add\n      swap1\n      tag_26\n      swap2\n      swap1\n      tag_27\n      jump\t// in\n    tag_26:\n      tag_28\n      jump\t// in\n    tag_25:\n      mload(0x40)\n      tag_29\n      swap2\n      swap1\n      tag_20\n      jump\t// in\n    tag_29:\n      mload(0x40)\n      dup1\n      swap2\n      sub\n      swap1\n      return\n        /* \"contracts/ShivamRainCoin.sol\":1034:1228  function mint(address to, uint256 amount) external onlyOwner {... */\n    tag_7:\n      tag_30\n      0x04\n      dup1\n      calldatasize\n      sub\n      dup2\n      add\n      swap1\n      tag_31\n      swap2\n      swap1\n      tag_32\n      jump\t// in\n    tag_31:\n      tag_33\n      jump\t// in\n    tag_30:\n      stop\n        /* \"contracts/ShivamRainCoin.sol\":1234:1480  function burn(uint256 amount) external {... */\n    tag_8:\n      tag_34\n      0x04\n      dup1\n      calldatasize\n      sub\n      dup2\n      add\n      swap1\n      tag_35\n      swap2\n      swap1\n      tag_36\n      jump\t// in\n    tag_35:\n      tag_37\n      jump\t// in\n    tag_34:\n      stop\n        /* \"contracts/ShivamRainCoin.sol\":710:730  address public owner */\n    tag_9:\n      tag_38\n      tag_39\n      jump\t// in\n    tag_38:\n      mload(0x40)\n      tag_40\n      swap2\n      swap1\n      tag_41\n      jump\t// in\n    tag_40:\n      mload(0x40)\n      dup1\n      swap2\n      sub\n      swap1\n      return\n        /* \"contracts/ShivamRainCoin.sol\":602:622  string public symbol */\n    tag_10:\n      tag_42\n      tag_43\n      jump\t// in\n    tag_42:\n      mload(0x40)\n      tag_44\n      swap2\n      swap1\n      tag_16\n      jump\t// in\n    tag_44:\n      mload(0x40)\n      dup1\n      swap2\n      sub\n      swap1\n      return\n        /* \"contracts/ShivamRainCoin.sol\":2012:2392  function transfer(address to, uint256 amount) external {... */\n    tag_11:\n      tag_45\n      0x04\n      dup1\n      calldatasize\n      sub\n      dup2\n      add\n      swap1\n      tag_46\n      swap2\n      swap1\n      tag_32\n      jump\t// in\n    tag_46:\n      tag_47\n      jump\t// in\n    tag_45:\n      stop\n        /* \"contracts/ShivamRainCoin.sol\":578:596  string public name */\n    tag_14:\n      0x00\n      dup1\n      sload\n      tag_48\n      swap1\n      tag_49\n      jump\t// in\n    tag_48:\n      dup1\n      0x1f\n      add\n      0x20\n      dup1\n      swap2\n      div\n      mul\n      0x20\n      add\n      mload(0x40)\n      swap1\n      dup2\n      add\n      0x40\n      mstore\n      dup1\n      swap3\n      swap2\n      swap1\n      dup2\n      dup2\n      mstore\n      0x20\n      add\n      dup3\n      dup1\n      sload\n      tag_50\n      swap1\n      tag_49\n      jump\t// in\n    tag_50:\n      dup1\n      iszero\n      tag_51\n      jumpi\n      dup1\n      0x1f\n      lt\n      tag_52\n      jumpi\n      0x0100\n      dup1\n      dup4\n      sload\n      div\n      mul\n      dup4\n      mstore\n      swap2\n      0x20\n      add\n      swap2\n      jump(tag_51)\n    tag_52:\n      dup3\n      add\n      swap2\n      swap1\n      0x00\n      mstore\n      keccak256(0x00, 0x20)\n      swap1\n    tag_53:\n      dup2\n      sload\n      dup2\n      mstore\n      swap1\n      0x01\n      add\n      swap1\n      0x20\n      add\n      dup1\n      dup4\n      gt\n      tag_53\n      jumpi\n      dup3\n      swap1\n      sub\n      0x1f\n      and\n      dup3\n      add\n      swap2\n    tag_51:\n      pop\n      pop\n      pop\n      pop\n      pop\n      dup2\n      jump\t// out\n        /* \"contracts/ShivamRainCoin.sol\":628:654  uint256 public totalSupply */\n    tag_18:\n      sload(0x02)\n      dup2\n      jump\t// out\n        /* \"contracts/ShivamRainCoin.sol\":1486:2006  function transferFrom(address from, address to, uint256 amount) external {... */\n    tag_24:\n        /* \"contracts/ShivamRainCoin.sol\":1646:1647  0 */\n      0x00\n        /* \"contracts/ShivamRainCoin.sol\":1632:1648  to != address(0) */\n      0xffffffffffffffffffffffffffffffffffffffff\n      and\n        /* \"contracts/ShivamRainCoin.sol\":1632:1634  to */\n      dup3\n        /* \"contracts/ShivamRainCoin.sol\":1632:1648  to != address(0) */\n      0xffffffffffffffffffffffffffffffffffffffff\n      and\n      sub\n        /* \"contracts/ShivamRainCoin.sol\":1624:1668  require(to != address(0), \"Invalid address\") */\n      tag_55\n      jumpi\n      mload(0x40)\n      0x08c379a000000000000000000000000000000000000000000000000000000000\n      dup2\n      mstore\n      0x04\n      add\n      tag_56\n      swap1\n      tag_57\n      jump\t// in\n    tag_56:\n      mload(0x40)\n      dup1\n      swap2\n      sub\n      swap1\n      revert\n    tag_55:\n        /* \"contracts/ShivamRainCoin.sol\":1695:1696  0 */\n      0x00\n        /* \"contracts/ShivamRainCoin.sol\":1686:1692  amount */\n      dup2\n        /* \"contracts/ShivamRainCoin.sol\":1686:1696  amount > 0 */\n      gt\n        /* \"contracts/ShivamRainCoin.sol\":1678:1715  require(amount > 0, \"Invalid amount\") */\n      tag_58\n      jumpi\n      mload(0x40)\n      0x08c379a000000000000000000000000000000000000000000000000000000000\n      dup2\n      mstore\n      0x04\n      add\n      tag_59\n      swap1\n      tag_60\n      jump\t// in\n    tag_59:\n      mload(0x40)\n      dup1\n      swap2\n      sub\n      swap1\n      revert\n    tag_58:\n        /* \"contracts/ShivamRainCoin.sol\":1757:1763  amount */\n      dup1\n        /* \"contracts/ShivamRainCoin.sol\":1733:1741  balances */\n      0x03\n        /* \"contracts/ShivamRainCoin.sol\":1733:1753  balances[msg.sender] */\n      0x00\n        /* \"contracts/ShivamRainCoin.sol\":1742:1752  msg.sender */\n      caller\n        /* \"contracts/ShivamRainCoin.sol\":1733:1753  balances[msg.sender] */\n      0xffffffffffffffffffffffffffffffffffffffff\n      and\n      0xffffffffffffffffffffffffffffffffffffffff\n      and\n      dup2\n      mstore\n      0x20\n      add\n      swap1\n      dup2\n      mstore\n      0x20\n      add\n      0x00\n      keccak256\n      sload\n        /* \"contracts/ShivamRainCoin.sol\":1733:1763  balances[msg.sender] >= amount */\n      lt\n      iszero\n        /* \"contracts/ShivamRainCoin.sol\":1725:1788  require(balances[msg.sender] >= amount, \"Insufficient balance\") */\n      tag_61\n      jumpi\n      mload(0x40)\n      0x08c379a000000000000000000000000000000000000000000000000000000000\n      dup2\n      mstore\n      0x04\n      add\n      tag_62\n      swap1\n      tag_63\n      jump\t// in\n    tag_62:\n      mload(0x40)\n      dup1\n      swap2\n      sub\n      swap1\n      revert\n    tag_61:\n        /* \"contracts/ShivamRainCoin.sol\":1816:1822  amount */\n      dup1\n        /* \"contracts/ShivamRainCoin.sol\":1798:1806  balances */\n      0x03\n        /* \"contracts/ShivamRainCoin.sol\":1798:1812  balances[from] */\n      0x00\n        /* \"contracts/ShivamRainCoin.sol\":1807:1811  from */\n      dup6\n        /* \"contracts/ShivamRainCoin.sol\":1798:1812  balances[from] */\n      0xffffffffffffffffffffffffffffffffffffffff\n      and\n      0xffffffffffffffffffffffffffffffffffffffff\n      and\n      dup2\n      mstore\n      0x20\n      add\n      swap1\n      dup2\n      mstore\n      0x20\n      add\n      0x00\n      keccak256\n      0x00\n        /* \"contracts/ShivamRainCoin.sol\":1798:1822  balances[from] -= amount */\n      dup3\n      dup3\n      sload\n      tag_64\n      swap2\n      swap1\n      tag_65\n      jump\t// in\n    tag_64:\n      swap3\n      pop\n      pop\n      dup2\n      swap1\n      sstore\n      pop\n        /* \"contracts/ShivamRainCoin.sol\":1848:1854  amount */\n      dup1\n        /* \"contracts/ShivamRainCoin.sol\":1832:1840  balances */\n      0x03\n        /* \"contracts/ShivamRainCoin.sol\":1832:1844  balances[to] */\n      0x00\n        /* \"contracts/ShivamRainCoin.sol\":1841:1843  to */\n      dup5\n        /* \"contracts/ShivamRainCoin.sol\":1832:1844  balances[to] */\n      0xffffffffffffffffffffffffffffffffffffffff\n      and\n      0xffffffffffffffffffffffffffffffffffffffff\n      and\n      dup2\n      mstore\n      0x20\n      add\n      swap1\n      dup2\n      mstore\n      0x20\n      add\n      0x00\n      keccak256\n      0x00\n        /* \"contracts/ShivamRainCoin.sol\":1832:1854  balances[to] += amount */\n      dup3\n      dup3\n      sload\n      tag_66\n      swap2\n      swap1\n      tag_67\n      jump\t// in\n    tag_66:\n      swap3\n      pop\n      pop\n      dup2\n      swap1\n      sstore\n      pop\n        /* \"contracts/ShivamRainCoin.sol\":1486:2006  function transferFrom(address from, address to, uint256 amount) external {... */\n      pop\n      pop\n      pop\n      jump\t// out\n        /* \"contracts/ShivamRainCoin.sol\":660:703  mapping(address => uint256) public balances */\n    tag_28:\n      mstore(0x20, 0x03)\n      dup1\n      0x00\n      mstore\n      keccak256(0x00, 0x40)\n      0x00\n      swap2\n      pop\n      swap1\n      pop\n      sload\n      dup2\n      jump\t// out\n        /* \"contracts/ShivamRainCoin.sol\":1034:1228  function mint(address to, uint256 amount) external onlyOwner {... */\n    tag_33:\n        /* \"contracts/ShivamRainCoin.sol\":796:801  owner */\n      0x04\n      0x00\n      swap1\n      sload\n      swap1\n      0x0100\n      exp\n      swap1\n      div\n      0xffffffffffffffffffffffffffffffffffffffff\n      and\n        /* \"contracts/ShivamRainCoin.sol\":782:801  msg.sender == owner */\n      0xffffffffffffffffffffffffffffffffffffffff\n      and\n        /* \"contracts/ShivamRainCoin.sol\":782:792  msg.sender */\n      caller\n        /* \"contracts/ShivamRainCoin.sol\":782:801  msg.sender == owner */\n      0xffffffffffffffffffffffffffffffffffffffff\n      and\n      eq\n        /* \"contracts/ShivamRainCoin.sol\":774:848  require(msg.sender == owner, \"Only contract owner can call this function\") */\n      tag_69\n      jumpi\n      mload(0x40)\n      0x08c379a000000000000000000000000000000000000000000000000000000000\n      dup2\n      mstore\n      0x04\n      add\n      tag_70\n      swap1\n      tag_71\n      jump\t// in\n    tag_70:\n      mload(0x40)\n      dup1\n      swap2\n      sub\n      swap1\n      revert\n    tag_69:\n        /* \"contracts/ShivamRainCoin.sol\":1127:1128  0 */\n      0x00\n        /* \"contracts/ShivamRainCoin.sol\":1113:1129  to != address(0) */\n      0xffffffffffffffffffffffffffffffffffffffff\n      and\n        /* \"contracts/ShivamRainCoin.sol\":1113:1115  to */\n      dup3\n        /* \"contracts/ShivamRainCoin.sol\":1113:1129  to != address(0) */\n      0xffffffffffffffffffffffffffffffffffffffff\n      and\n      sub\n        /* \"contracts/ShivamRainCoin.sol\":1105:1149  require(to != address(0), \"Invalid address\") */\n      tag_73\n      jumpi\n      mload(0x40)\n      0x08c379a000000000000000000000000000000000000000000000000000000000\n      dup2\n      mstore\n      0x04\n      add\n      tag_74\n      swap1\n      tag_57\n      jump\t// in\n    tag_74:\n      mload(0x40)\n      dup1\n      swap2\n      sub\n      swap1\n      revert\n    tag_73:\n        /* \"contracts/ShivamRainCoin.sol\":1174:1180  amount */\n      dup1\n        /* \"contracts/ShivamRainCoin.sol\":1159:1170  totalSupply */\n      0x02\n      0x00\n        /* \"contracts/ShivamRainCoin.sol\":1159:1180  totalSupply += amount */\n      dup3\n      dup3\n      sload\n      tag_75\n      swap2\n      swap1\n      tag_67\n      jump\t// in\n    tag_75:\n      swap3\n      pop\n      pop\n      dup2\n      swap1\n      sstore\n      pop\n        /* \"contracts/ShivamRainCoin.sol\":1206:1212  amount */\n      dup1\n        /* \"contracts/ShivamRainCoin.sol\":1190:1198  balances */\n      0x03\n        /* \"contracts/ShivamRainCoin.sol\":1190:1202  balances[to] */\n      0x00\n        /* \"contracts/ShivamRainCoin.sol\":1199:1201  to */\n      dup5\n        /* \"contracts/ShivamRainCoin.sol\":1190:1202  balances[to] */\n      0xffffffffffffffffffffffffffffffffffffffff\n      and\n      0xffffffffffffffffffffffffffffffffffffffff\n      and\n      dup2\n      mstore\n      0x20\n      add\n      swap1\n      dup2\n      mstore\n      0x20\n      add\n      0x00\n      keccak256\n      0x00\n        /* \"contracts/ShivamRainCoin.sol\":1190:1212  balances[to] += amount */\n      dup3\n      dup3\n      sload\n      tag_76\n      swap2\n      swap1\n      tag_67\n      jump\t// in\n    tag_76:\n      swap3\n      pop\n      pop\n      dup2\n      swap1\n      sstore\n      pop\n        /* \"contracts/ShivamRainCoin.sol\":1034:1228  function mint(address to, uint256 amount) external onlyOwner {... */\n      pop\n      pop\n      jump\t// out\n        /* \"contracts/ShivamRainCoin.sol\":1234:1480  function burn(uint256 amount) external {... */\n    tag_37:\n        /* \"contracts/ShivamRainCoin.sol\":1300:1301  0 */\n      0x00\n        /* \"contracts/ShivamRainCoin.sol\":1291:1297  amount */\n      dup2\n        /* \"contracts/ShivamRainCoin.sol\":1291:1301  amount > 0 */\n      gt\n        /* \"contracts/ShivamRainCoin.sol\":1283:1320  require(amount > 0, \"Invalid amount\") */\n      tag_78\n      jumpi\n      mload(0x40)\n      0x08c379a000000000000000000000000000000000000000000000000000000000\n      dup2\n      mstore\n      0x04\n      add\n      tag_79\n      swap1\n      tag_60\n      jump\t// in\n    tag_79:\n      mload(0x40)\n      dup1\n      swap2\n      sub\n      swap1\n      revert\n    tag_78:\n        /* \"contracts/ShivamRainCoin.sol\":1362:1368  amount */\n      dup1\n        /* \"contracts/ShivamRainCoin.sol\":1338:1346  balances */\n      0x03\n        /* \"contracts/ShivamRainCoin.sol\":1338:1358  balances[msg.sender] */\n      0x00\n        /* \"contracts/ShivamRainCoin.sol\":1347:1357  msg.sender */\n      caller\n        /* \"contracts/ShivamRainCoin.sol\":1338:1358  balances[msg.sender] */\n      0xffffffffffffffffffffffffffffffffffffffff\n      and\n      0xffffffffffffffffffffffffffffffffffffffff\n      and\n      dup2\n      mstore\n      0x20\n      add\n      swap1\n      dup2\n      mstore\n      0x20\n      add\n      0x00\n      keccak256\n      sload\n        /* \"contracts/ShivamRainCoin.sol\":1338:1368  balances[msg.sender] >= amount */\n      lt\n      iszero\n        /* \"contracts/ShivamRainCoin.sol\":1330:1393  require(balances[msg.sender] >= amount, \"Insufficient balance\") */\n      tag_80\n      jumpi\n      mload(0x40)\n      0x08c379a000000000000000000000000000000000000000000000000000000000\n      dup2\n      mstore\n      0x04\n      add\n      tag_81\n      swap1\n      tag_63\n      jump\t// in\n    tag_81:\n      mload(0x40)\n      dup1\n      swap2\n      sub\n      swap1\n      revert\n    tag_80:\n        /* \"contracts/ShivamRainCoin.sol\":1418:1424  amount */\n      dup1\n        /* \"contracts/ShivamRainCoin.sol\":1403:1414  totalSupply */\n      0x02\n      0x00\n        /* \"contracts/ShivamRainCoin.sol\":1403:1424  totalSupply -= amount */\n      dup3\n      dup3\n      sload\n      tag_82\n      swap2\n      swap1\n      tag_65\n      jump\t// in\n    tag_82:\n      swap3\n      pop\n      pop\n      dup2\n      swap1\n      sstore\n      pop\n        /* \"contracts/ShivamRainCoin.sol\":1458:1464  amount */\n      dup1\n        /* \"contracts/ShivamRainCoin.sol\":1434:1442  balances */\n      0x03\n        /* \"contracts/ShivamRainCoin.sol\":1434:1454  balances[msg.sender] */\n      0x00\n        /* \"contracts/ShivamRainCoin.sol\":1443:1453  msg.sender */\n      caller\n        /* \"contracts/ShivamRainCoin.sol\":1434:1454  balances[msg.sender] */\n      0xffffffffffffffffffffffffffffffffffffffff\n      and\n      0xffffffffffffffffffffffffffffffffffffffff\n      and\n      dup2\n      mstore\n      0x20\n      add\n      swap1\n      dup2\n      mstore\n      0x20\n      add\n      0x00\n      keccak256\n      0x00\n        /* \"contracts/ShivamRainCoin.sol\":1434:1464  balances[msg.sender] -= amount */\n      dup3\n      dup3\n      sload\n      tag_83\n      swap2\n      swap1\n      tag_65\n      jump\t// in\n    tag_83:\n      swap3\n      pop\n      pop\n      dup2\n      swap1\n      sstore\n      pop\n        /* \"contracts/ShivamRainCoin.sol\":1234:1480  function burn(uint256 amount) external {... */\n      pop\n      jump\t// out\n        /* \"contracts/ShivamRainCoin.sol\":710:730  address public owner */\n    tag_39:\n      0x04\n      0x00\n      swap1\n      sload\n      swap1\n      0x0100\n      exp\n      swap1\n      div\n      0xffffffffffffffffffffffffffffffffffffffff\n      and\n      dup2\n      jump\t// out\n        /* \"contracts/ShivamRainCoin.sol\":602:622  string public symbol */\n    tag_43:\n      0x01\n      dup1\n      sload\n      tag_84\n      swap1\n      tag_49\n      jump\t// in\n    tag_84:\n      dup1\n      0x1f\n      add\n      0x20\n      dup1\n      swap2\n      div\n      mul\n      0x20\n      add\n      mload(0x40)\n      swap1\n      dup2\n      add\n      0x40\n      mstore\n      dup1\n      swap3\n      swap2\n      swap1\n      dup2\n      dup2\n      mstore\n      0x20\n      add\n      dup3\n      dup1\n      sload\n      tag_85\n      swap1\n      tag_49\n      jump\t// in\n    tag_85:\n      dup1\n      iszero\n      tag_86\n      jumpi\n      dup1\n      0x1f\n      lt\n      tag_87\n      jumpi\n      0x0100\n      dup1\n      dup4\n      sload\n      div\n      mul\n      dup4\n      mstore\n      swap2\n      0x20\n      add\n      swap2\n      jump(tag_86)\n    tag_87:\n      dup3\n      add\n      swap2\n      swap1\n      0x00\n      mstore\n      keccak256(0x00, 0x20)\n      swap1\n    tag_88:\n      dup2\n      sload\n      dup2\n      mstore\n      swap1\n      0x01\n      add\n      swap1\n      0x20\n      add\n      dup1\n      dup4\n      gt\n      tag_88\n      jumpi\n      dup3\n      swap1\n      sub\n      0x1f\n      and\n      dup3\n      add\n      swap2\n    tag_86:\n      pop\n      pop\n      pop\n      pop\n      pop\n      dup2\n      jump\t// out\n        /* \"contracts/ShivamRainCoin.sol\":2012:2392  function transfer(address to, uint256 amount) external {... */\n    tag_47:\n        /* \"contracts/ShivamRainCoin.sol\":2162:2163  0 */\n      0x00\n        /* \"contracts/ShivamRainCoin.sol\":2148:2164  to != address(0) */\n      0xffffffffffffffffffffffffffffffffffffffff\n      and\n        /* \"contracts/ShivamRainCoin.sol\":2148:2150  to */\n      dup3\n        /* \"contracts/ShivamRainCoin.sol\":2148:2164  to != address(0) */\n      0xffffffffffffffffffffffffffffffffffffffff\n      and\n      sub\n        /* \"contracts/ShivamRainCoin.sol\":2140:2184  require(to != address(0), \"Invalid address\") */\n      tag_90\n      jumpi\n      mload(0x40)\n      0x08c379a000000000000000000000000000000000000000000000000000000000\n      dup2\n      mstore\n      0x04\n      add\n      tag_91\n      swap1\n      tag_57\n      jump\t// in\n    tag_91:\n      mload(0x40)\n      dup1\n      swap2\n      sub\n      swap1\n      revert\n    tag_90:\n        /* \"contracts/ShivamRainCoin.sol\":2211:2212  0 */\n      0x00\n        /* \"contracts/ShivamRainCoin.sol\":2202:2208  amount */\n      dup2\n        /* \"contracts/ShivamRainCoin.sol\":2202:2212  amount > 0 */\n      gt\n        /* \"contracts/ShivamRainCoin.sol\":2194:2231  require(amount > 0, \"Invalid amount\") */\n      tag_92\n      jumpi\n      mload(0x40)\n      0x08c379a000000000000000000000000000000000000000000000000000000000\n      dup2\n      mstore\n      0x04\n      add\n      tag_93\n      swap1\n      tag_60\n      jump\t// in\n    tag_93:\n      mload(0x40)\n      dup1\n      swap2\n      sub\n      swap1\n      revert\n    tag_92:\n        /* \"contracts/ShivamRainCoin.sol\":2273:2279  amount */\n      dup1\n        /* \"contracts/ShivamRainCoin.sol\":2249:2257  balances */\n      0x03\n        /* \"contracts/ShivamRainCoin.sol\":2249:2269  balances[msg.sender] */\n      0x00\n        /* \"contracts/ShivamRainCoin.sol\":2258:2268  msg.sender */\n      caller\n        /* \"contracts/ShivamRainCoin.sol\":2249:2269  balances[msg.sender] */\n      0xffffffffffffffffffffffffffffffffffffffff\n      and\n      0xffffffffffffffffffffffffffffffffffffffff\n      and\n      dup2\n      mstore\n      0x20\n      add\n      swap1\n      dup2\n      mstore\n      0x20\n      add\n      0x00\n      keccak256\n      sload\n        /* \"contracts/ShivamRainCoin.sol\":2249:2279  balances[msg.sender] >= amount */\n      lt\n      iszero\n        /* \"contracts/ShivamRainCoin.sol\":2241:2304  require(balances[msg.sender] >= amount, \"Insufficient balance\") */\n      tag_94\n      jumpi\n      mload(0x40)\n      0x08c379a000000000000000000000000000000000000000000000000000000000\n      dup2\n      mstore\n      0x04\n      add\n      tag_95\n      swap1\n      tag_63\n      jump\t// in\n    tag_95:\n      mload(0x40)\n      dup1\n      swap2\n      sub\n      swap1\n      revert\n    tag_94:\n        /* \"contracts/ShivamRainCoin.sol\":2338:2344  amount */\n      dup1\n        /* \"contracts/ShivamRainCoin.sol\":2314:2322  balances */\n      0x03\n        /* \"contracts/ShivamRainCoin.sol\":2314:2334  balances[msg.sender] */\n      0x00\n        /* \"contracts/ShivamRainCoin.sol\":2323:2333  msg.sender */\n      caller\n        /* \"contracts/ShivamRainCoin.sol\":2314:2334  balances[msg.sender] */\n      0xffffffffffffffffffffffffffffffffffffffff\n      and\n      0xffffffffffffffffffffffffffffffffffffffff\n      and\n      dup2\n      mstore\n      0x20\n      add\n      swap1\n      dup2\n      mstore\n      0x20\n      add\n      0x00\n      keccak256\n      0x00\n        /* \"contracts/ShivamRainCoin.sol\":2314:2344  balances[msg.sender] -= amount */\n      dup3\n      dup3\n      sload\n      tag_96\n      swap2\n      swap1\n      tag_65\n      jump\t// in\n    tag_96:\n      swap3\n      pop\n      pop\n      dup2\n      swap1\n      sstore\n      pop\n        /* \"contracts/ShivamRainCoin.sol\":2370:2376  amount */\n      dup1\n        /* \"contracts/ShivamRainCoin.sol\":2354:2362  balances */\n      0x03\n        /* \"contracts/ShivamRainCoin.sol\":2354:2366  balances[to] */\n      0x00\n        /* \"contracts/ShivamRainCoin.sol\":2363:2365  to */\n      dup5\n        /* \"contracts/ShivamRainCoin.sol\":2354:2366  balances[to] */\n      0xffffffffffffffffffffffffffffffffffffffff\n      and\n      0xffffffffffffffffffffffffffffffffffffffff\n      and\n      dup2\n      mstore\n      0x20\n      add\n      swap1\n      dup2\n      mstore\n      0x20\n      add\n      0x00\n      keccak256\n      0x00\n        /* \"contracts/ShivamRainCoin.sol\":2354:2376  balances[to] += amount */\n      dup3\n      dup3\n      sload\n      tag_97\n      swap2\n      swap1\n      tag_67\n      jump\t// in\n    tag_97:\n      swap3\n      pop\n      pop\n      dup2\n      swap1\n      sstore\n      pop\n        /* \"contracts/ShivamRainCoin.sol\":2012:2392  function transfer(address to, uint256 amount) external {... */\n      pop\n      pop\n      jump\t// out\n        /* \"#utility.yul\":7:106   */\n    tag_98:\n        /* \"#utility.yul\":59:65   */\n      0x00\n        /* \"#utility.yul\":93:98   */\n      dup2\n        /* \"#utility.yul\":87:99   */\n      mload\n        /* \"#utility.yul\":77:99   */\n      swap1\n      pop\n        /* \"#utility.yul\":7:106   */\n      swap2\n      swap1\n      pop\n      jump\t// out\n        /* \"#utility.yul\":112:281   */\n    tag_99:\n        /* \"#utility.yul\":196:207   */\n      0x00\n        /* \"#utility.yul\":230:236   */\n      dup3\n        /* \"#utility.yul\":225:228   */\n      dup3\n        /* \"#utility.yul\":218:237   */\n      mstore\n        /* \"#utility.yul\":270:274   */\n      0x20\n        /* \"#utility.yul\":265:268   */\n      dup3\n        /* \"#utility.yul\":261:275   */\n      add\n        /* \"#utility.yul\":246:275   */\n      swap1\n      pop\n        /* \"#utility.yul\":112:281   */\n      swap3\n      swap2\n      pop\n      pop\n      jump\t// out\n        /* \"#utility.yul\":287:426   */\n    tag_100:\n        /* \"#utility.yul\":376:382   */\n      dup3\n        /* \"#utility.yul\":371:374   */\n      dup2\n        /* \"#utility.yul\":366:369   */\n      dup4\n        /* \"#utility.yul\":360:383   */\n      mcopy\n        /* \"#utility.yul\":417:418   */\n      0x00\n        /* \"#utility.yul\":408:414   */\n      dup4\n        /* \"#utility.yul\":403:406   */\n      dup4\n        /* \"#utility.yul\":399:415   */\n      add\n        /* \"#utility.yul\":392:419   */\n      mstore\n        /* \"#utility.yul\":287:426   */\n      pop\n      pop\n      pop\n      jump\t// out\n        /* \"#utility.yul\":432:534   */\n    tag_101:\n        /* \"#utility.yul\":473:479   */\n      0x00\n        /* \"#utility.yul\":524:526   */\n      0x1f\n        /* \"#utility.yul\":520:527   */\n      not\n        /* \"#utility.yul\":515:517   */\n      0x1f\n        /* \"#utility.yul\":508:513   */\n      dup4\n        /* \"#utility.yul\":504:518   */\n      add\n        /* \"#utility.yul\":500:528   */\n      and\n        /* \"#utility.yul\":490:528   */\n      swap1\n      pop\n        /* \"#utility.yul\":432:534   */\n      swap2\n      swap1\n      pop\n      jump\t// out\n        /* \"#utility.yul\":540:917   */\n    tag_102:\n        /* \"#utility.yul\":628:631   */\n      0x00\n        /* \"#utility.yul\":656:695   */\n      tag_131\n        /* \"#utility.yul\":689:694   */\n      dup3\n        /* \"#utility.yul\":656:695   */\n      tag_98\n      jump\t// in\n    tag_131:\n        /* \"#utility.yul\":711:782   */\n      tag_132\n        /* \"#utility.yul\":775:781   */\n      dup2\n        /* \"#utility.yul\":770:773   */\n      dup6\n        /* \"#utility.yul\":711:782   */\n      tag_99\n      jump\t// in\n    tag_132:\n        /* \"#utility.yul\":704:782   */\n      swap4\n      pop\n        /* \"#utility.yul\":791:856   */\n      tag_133\n        /* \"#utility.yul\":849:855   */\n      dup2\n        /* \"#utility.yul\":844:847   */\n      dup6\n        /* \"#utility.yul\":837:841   */\n      0x20\n        /* \"#utility.yul\":830:835   */\n      dup7\n        /* \"#utility.yul\":826:842   */\n      add\n        /* \"#utility.yul\":791:856   */\n      tag_100\n      jump\t// in\n    tag_133:\n        /* \"#utility.yul\":881:910   */\n      tag_134\n        /* \"#utility.yul\":903:909   */\n      dup2\n        /* \"#utility.yul\":881:910   */\n      tag_101\n      jump\t// in\n    tag_134:\n        /* \"#utility.yul\":876:879   */\n      dup5\n        /* \"#utility.yul\":872:911   */\n      add\n        /* \"#utility.yul\":865:911   */\n      swap2\n      pop\n        /* \"#utility.yul\":632:917   */\n      pop\n        /* \"#utility.yul\":540:917   */\n      swap3\n      swap2\n      pop\n      pop\n      jump\t// out\n        /* \"#utility.yul\":923:1236   */\n    tag_16:\n        /* \"#utility.yul\":1036:1040   */\n      0x00\n        /* \"#utility.yul\":1074:1076   */\n      0x20\n        /* \"#utility.yul\":1063:1072   */\n      dup3\n        /* \"#utility.yul\":1059:1077   */\n      add\n        /* \"#utility.yul\":1051:1077   */\n      swap1\n      pop\n        /* \"#utility.yul\":1123:1132   */\n      dup2\n        /* \"#utility.yul\":1117:1121   */\n      dup2\n        /* \"#utility.yul\":1113:1133   */\n      sub\n        /* \"#utility.yul\":1109:1110   */\n      0x00\n        /* \"#utility.yul\":1098:1107   */\n      dup4\n        /* \"#utility.yul\":1094:1111   */\n      add\n        /* \"#utility.yul\":1087:1134   */\n      mstore\n        /* \"#utility.yul\":1151:1229   */\n      tag_136\n        /* \"#utility.yul\":1224:1228   */\n      dup2\n        /* \"#utility.yul\":1215:1221   */\n      dup5\n        /* \"#utility.yul\":1151:1229   */\n      tag_102\n      jump\t// in\n    tag_136:\n        /* \"#utility.yul\":1143:1229   */\n      swap1\n      pop\n        /* \"#utility.yul\":923:1236   */\n      swap3\n      swap2\n      pop\n      pop\n      jump\t// out\n        /* \"#utility.yul\":1242:1319   */\n    tag_103:\n        /* \"#utility.yul\":1279:1286   */\n      0x00\n        /* \"#utility.yul\":1308:1313   */\n      dup2\n        /* \"#utility.yul\":1297:1313   */\n      swap1\n      pop\n        /* \"#utility.yul\":1242:1319   */\n      swap2\n      swap1\n      pop\n      jump\t// out\n        /* \"#utility.yul\":1325:1443   */\n    tag_104:\n        /* \"#utility.yul\":1412:1436   */\n      tag_139\n        /* \"#utility.yul\":1430:1435   */\n      dup2\n        /* \"#utility.yul\":1412:1436   */\n      tag_103\n      jump\t// in\n    tag_139:\n        /* \"#utility.yul\":1407:1410   */\n      dup3\n        /* \"#utility.yul\":1400:1437   */\n      mstore\n        /* \"#utility.yul\":1325:1443   */\n      pop\n      pop\n      jump\t// out\n        /* \"#utility.yul\":1449:1671   */\n    tag_20:\n        /* \"#utility.yul\":1542:1546   */\n      0x00\n        /* \"#utility.yul\":1580:1582   */\n      0x20\n        /* \"#utility.yul\":1569:1578   */\n      dup3\n        /* \"#utility.yul\":1565:1583   */\n      add\n        /* \"#utility.yul\":1557:1583   */\n      swap1\n      pop\n        /* \"#utility.yul\":1593:1664   */\n      tag_141\n        /* \"#utility.yul\":1661:1662   */\n      0x00\n        /* \"#utility.yul\":1650:1659   */\n      dup4\n        /* \"#utility.yul\":1646:1663   */\n      add\n        /* \"#utility.yul\":1637:1643   */\n      dup5\n        /* \"#utility.yul\":1593:1664   */\n      tag_104\n      jump\t// in\n    tag_141:\n        /* \"#utility.yul\":1449:1671   */\n      swap3\n      swap2\n      pop\n      pop\n      jump\t// out\n        /* \"#utility.yul\":1758:1875   */\n    tag_106:\n        /* \"#utility.yul\":1867:1868   */\n      0x00\n        /* \"#utility.yul\":1864:1865   */\n      dup1\n        /* \"#utility.yul\":1857:1869   */\n      revert\n        /* \"#utility.yul\":2004:2130   */\n    tag_108:\n        /* \"#utility.yul\":2041:2048   */\n      0x00\n        /* \"#utility.yul\":2081:2123   */\n      0xffffffffffffffffffffffffffffffffffffffff\n        /* \"#utility.yul\":2074:2079   */\n      dup3\n        /* \"#utility.yul\":2070:2124   */\n      and\n        /* \"#utility.yul\":2059:2124   */\n      swap1\n      pop\n        /* \"#utility.yul\":2004:2130   */\n      swap2\n      swap1\n      pop\n      jump\t// out\n        /* \"#utility.yul\":2136:2232   */\n    tag_109:\n        /* \"#utility.yul\":2173:2180   */\n      0x00\n        /* \"#utility.yul\":2202:2226   */\n      tag_147\n        /* \"#utility.yul\":2220:2225   */\n      dup3\n        /* \"#utility.yul\":2202:2226   */\n      tag_108\n      jump\t// in\n    tag_147:\n        /* \"#utility.yul\":2191:2226   */\n      swap1\n      pop\n        /* \"#utility.yul\":2136:2232   */\n      swap2\n      swap1\n      pop\n      jump\t// out\n        /* \"#utility.yul\":2238:2360   */\n    tag_110:\n        /* \"#utility.yul\":2311:2335   */\n      tag_149\n        /* \"#utility.yul\":2329:2334   */\n      dup2\n        /* \"#utility.yul\":2311:2335   */\n      tag_109\n      jump\t// in\n    tag_149:\n        /* \"#utility.yul\":2304:2309   */\n      dup2\n        /* \"#utility.yul\":2301:2336   */\n      eq\n        /* \"#utility.yul\":2291:2354   */\n      tag_150\n      jumpi\n        /* \"#utility.yul\":2350:2351   */\n      0x00\n        /* \"#utility.yul\":2347:2348   */\n      dup1\n        /* \"#utility.yul\":2340:2352   */\n      revert\n        /* \"#utility.yul\":2291:2354   */\n    tag_150:\n        /* \"#utility.yul\":2238:2360   */\n      pop\n      jump\t// out\n        /* \"#utility.yul\":2366:2505   */\n    tag_111:\n        /* \"#utility.yul\":2412:2417   */\n      0x00\n        /* \"#utility.yul\":2450:2456   */\n      dup2\n        /* \"#utility.yul\":2437:2457   */\n      calldataload\n        /* \"#utility.yul\":2428:2457   */\n      swap1\n      pop\n        /* \"#utility.yul\":2466:2499   */\n      tag_152\n        /* \"#utility.yul\":2493:2498   */\n      dup2\n        /* \"#utility.yul\":2466:2499   */\n      tag_110\n      jump\t// in\n    tag_152:\n        /* \"#utility.yul\":2366:2505   */\n      swap3\n      swap2\n      pop\n      pop\n      jump\t// out\n        /* \"#utility.yul\":2511:2633   */\n    tag_112:\n        /* \"#utility.yul\":2584:2608   */\n      tag_154\n        /* \"#utility.yul\":2602:2607   */\n      dup2\n        /* \"#utility.yul\":2584:2608   */\n      tag_103\n      jump\t// in\n    tag_154:\n        /* \"#utility.yul\":2577:2582   */\n      dup2\n        /* \"#utility.yul\":2574:2609   */\n      eq\n        /* \"#utility.yul\":2564:2627   */\n      tag_155\n      jumpi\n        /* \"#utility.yul\":2623:2624   */\n      0x00\n        /* \"#utility.yul\":2620:2621   */\n      dup1\n        /* \"#utility.yul\":2613:2625   */\n      revert\n        /* \"#utility.yul\":2564:2627   */\n    tag_155:\n        /* \"#utility.yul\":2511:2633   */\n      pop\n      jump\t// out\n        /* \"#utility.yul\":2639:2778   */\n    tag_113:\n        /* \"#utility.yul\":2685:2690   */\n      0x00\n        /* \"#utility.yul\":2723:2729   */\n      dup2\n        /* \"#utility.yul\":2710:2730   */\n      calldataload\n        /* \"#utility.yul\":2701:2730   */\n      swap1\n      pop\n        /* \"#utility.yul\":2739:2772   */\n      tag_157\n        /* \"#utility.yul\":2766:2771   */\n      dup2\n        /* \"#utility.yul\":2739:2772   */\n      tag_112\n      jump\t// in\n    tag_157:\n        /* \"#utility.yul\":2639:2778   */\n      swap3\n      swap2\n      pop\n      pop\n      jump\t// out\n        /* \"#utility.yul\":2784:3403   */\n    tag_23:\n        /* \"#utility.yul\":2861:2867   */\n      0x00\n        /* \"#utility.yul\":2869:2875   */\n      dup1\n        /* \"#utility.yul\":2877:2883   */\n      0x00\n        /* \"#utility.yul\":2926:2928   */\n      0x60\n        /* \"#utility.yul\":2914:2923   */\n      dup5\n        /* \"#utility.yul\":2905:2912   */\n      dup7\n        /* \"#utility.yul\":2901:2924   */\n      sub\n        /* \"#utility.yul\":2897:2929   */\n      slt\n        /* \"#utility.yul\":2894:3013   */\n      iszero\n      tag_159\n      jumpi\n        /* \"#utility.yul\":2932:3011   */\n      tag_160\n      tag_106\n      jump\t// in\n    tag_160:\n        /* \"#utility.yul\":2894:3013   */\n    tag_159:\n        /* \"#utility.yul\":3052:3053   */\n      0x00\n        /* \"#utility.yul\":3077:3130   */\n      tag_161\n        /* \"#utility.yul\":3122:3129   */\n      dup7\n        /* \"#utility.yul\":3113:3119   */\n      dup3\n        /* \"#utility.yul\":3102:3111   */\n      dup8\n        /* \"#utility.yul\":3098:3120   */\n      add\n        /* \"#utility.yul\":3077:3130   */\n      tag_111\n      jump\t// in\n    tag_161:\n        /* \"#utility.yul\":3067:3130   */\n      swap4\n      pop\n        /* \"#utility.yul\":3023:3140   */\n      pop\n        /* \"#utility.yul\":3179:3181   */\n      0x20\n        /* \"#utility.yul\":3205:3258   */\n      tag_162\n        /* \"#utility.yul\":3250:3257   */\n      dup7\n        /* \"#utility.yul\":3241:3247   */\n      dup3\n        /* \"#utility.yul\":3230:3239   */\n      dup8\n        /* \"#utility.yul\":3226:3248   */\n      add\n        /* \"#utility.yul\":3205:3258   */\n      tag_111\n      jump\t// in\n    tag_162:\n        /* \"#utility.yul\":3195:3258   */\n      swap3\n      pop\n        /* \"#utility.yul\":3150:3268   */\n      pop\n        /* \"#utility.yul\":3307:3309   */\n      0x40\n        /* \"#utility.yul\":3333:3386   */\n      tag_163\n        /* \"#utility.yul\":3378:3385   */\n      dup7\n        /* \"#utility.yul\":3369:3375   */\n      dup3\n        /* \"#utility.yul\":3358:3367   */\n      dup8\n        /* \"#utility.yul\":3354:3376   */\n      add\n        /* \"#utility.yul\":3333:3386   */\n      tag_113\n      jump\t// in\n    tag_163:\n        /* \"#utility.yul\":3323:3386   */\n      swap2\n      pop\n        /* \"#utility.yul\":3278:3396   */\n      pop\n        /* \"#utility.yul\":2784:3403   */\n      swap3\n      pop\n      swap3\n      pop\n      swap3\n      jump\t// out\n        /* \"#utility.yul\":3409:3738   */\n    tag_27:\n        /* \"#utility.yul\":3468:3474   */\n      0x00\n        /* \"#utility.yul\":3517:3519   */\n      0x20\n        /* \"#utility.yul\":3505:3514   */\n      dup3\n        /* \"#utility.yul\":3496:3503   */\n      dup5\n        /* \"#utility.yul\":3492:3515   */\n      sub\n        /* \"#utility.yul\":3488:3520   */\n      slt\n        /* \"#utility.yul\":3485:3604   */\n      iszero\n      tag_165\n      jumpi\n        /* \"#utility.yul\":3523:3602   */\n      tag_166\n      tag_106\n      jump\t// in\n    tag_166:\n        /* \"#utility.yul\":3485:3604   */\n    tag_165:\n        /* \"#utility.yul\":3643:3644   */\n      0x00\n        /* \"#utility.yul\":3668:3721   */\n      tag_167\n        /* \"#utility.yul\":3713:3720   */\n      dup5\n        /* \"#utility.yul\":3704:3710   */\n      dup3\n        /* \"#utility.yul\":3693:3702   */\n      dup6\n        /* \"#utility.yul\":3689:3711   */\n      add\n        /* \"#utility.yul\":3668:3721   */\n      tag_111\n      jump\t// in\n    tag_167:\n        /* \"#utility.yul\":3658:3721   */\n      swap2\n      pop\n        /* \"#utility.yul\":3614:3731   */\n      pop\n        /* \"#utility.yul\":3409:3738   */\n      swap3\n      swap2\n      pop\n      pop\n      jump\t// out\n        /* \"#utility.yul\":3744:4218   */\n    tag_32:\n        /* \"#utility.yul\":3812:3818   */\n      0x00\n        /* \"#utility.yul\":3820:3826   */\n      dup1\n        /* \"#utility.yul\":3869:3871   */\n      0x40\n        /* \"#utility.yul\":3857:3866   */\n      dup4\n        /* \"#utility.yul\":3848:3855   */\n      dup6\n        /* \"#utility.yul\":3844:3867   */\n      sub\n        /* \"#utility.yul\":3840:3872   */\n      slt\n        /* \"#utility.yul\":3837:3956   */\n      iszero\n      tag_169\n      jumpi\n        /* \"#utility.yul\":3875:3954   */\n      tag_170\n      tag_106\n      jump\t// in\n    tag_170:\n        /* \"#utility.yul\":3837:3956   */\n    tag_169:\n        /* \"#utility.yul\":3995:3996   */\n      0x00\n        /* \"#utility.yul\":4020:4073   */\n      tag_171\n        /* \"#utility.yul\":4065:4072   */\n      dup6\n        /* \"#utility.yul\":4056:4062   */\n      dup3\n        /* \"#utility.yul\":4045:4054   */\n      dup7\n        /* \"#utility.yul\":4041:4063   */\n      add\n        /* \"#utility.yul\":4020:4073   */\n      tag_111\n      jump\t// in\n    tag_171:\n        /* \"#utility.yul\":4010:4073   */\n      swap3\n      pop\n        /* \"#utility.yul\":3966:4083   */\n      pop\n        /* \"#utility.yul\":4122:4124   */\n      0x20\n        /* \"#utility.yul\":4148:4201   */\n      tag_172\n        /* \"#utility.yul\":4193:4200   */\n      dup6\n        /* \"#utility.yul\":4184:4190   */\n      dup3\n        /* \"#utility.yul\":4173:4182   */\n      dup7\n        /* \"#utility.yul\":4169:4191   */\n      add\n        /* \"#utility.yul\":4148:4201   */\n      tag_113\n      jump\t// in\n    tag_172:\n        /* \"#utility.yul\":4138:4201   */\n      swap2\n      pop\n        /* \"#utility.yul\":4093:4211   */\n      pop\n        /* \"#utility.yul\":3744:4218   */\n      swap3\n      pop\n      swap3\n      swap1\n      pop\n      jump\t// out\n        /* \"#utility.yul\":4224:4553   */\n    tag_36:\n        /* \"#utility.yul\":4283:4289   */\n      0x00\n        /* \"#utility.yul\":4332:4334   */\n      0x20\n        /* \"#utility.yul\":4320:4329   */\n      dup3\n        /* \"#utility.yul\":4311:4318   */\n      dup5\n        /* \"#utility.yul\":4307:4330   */\n      sub\n        /* \"#utility.yul\":4303:4335   */\n      slt\n        /* \"#utility.yul\":4300:4419   */\n      iszero\n      tag_174\n      jumpi\n        /* \"#utility.yul\":4338:4417   */\n      tag_175\n      tag_106\n      jump\t// in\n    tag_175:\n        /* \"#utility.yul\":4300:4419   */\n    tag_174:\n        /* \"#utility.yul\":4458:4459   */\n      0x00\n        /* \"#utility.yul\":4483:4536   */\n      tag_176\n        /* \"#utility.yul\":4528:4535   */\n      dup5\n        /* \"#utility.yul\":4519:4525   */\n      dup3\n        /* \"#utility.yul\":4508:4517   */\n      dup6\n        /* \"#utility.yul\":4504:4526   */\n      add\n        /* \"#utility.yul\":4483:4536   */\n      tag_113\n      jump\t// in\n    tag_176:\n        /* \"#utility.yul\":4473:4536   */\n      swap2\n      pop\n        /* \"#utility.yul\":4429:4546   */\n      pop\n        /* \"#utility.yul\":4224:4553   */\n      swap3\n      swap2\n      pop\n      pop\n      jump\t// out\n        /* \"#utility.yul\":4559:4677   */\n    tag_114:\n        /* \"#utility.yul\":4646:4670   */\n      tag_178\n        /* \"#utility.yul\":4664:4669   */\n      dup2\n        /* \"#utility.yul\":4646:4670   */\n      tag_109\n      jump\t// in\n    tag_178:\n        /* \"#utility.yul\":4641:4644   */\n      dup3\n        /* \"#utility.yul\":4634:4671   */\n      mstore\n        /* \"#utility.yul\":4559:4677   */\n      pop\n      pop\n      jump\t// out\n        /* \"#utility.yul\":4683:4905   */\n    tag_41:\n        /* \"#utility.yul\":4776:4780   */\n      0x00\n        /* \"#utility.yul\":4814:4816   */\n      0x20\n        /* \"#utility.yul\":4803:4812   */\n      dup3\n        /* \"#utility.yul\":4799:4817   */\n      add\n        /* \"#utility.yul\":4791:4817   */\n      swap1\n      pop\n        /* \"#utility.yul\":4827:4898   */\n      tag_180\n        /* \"#utility.yul\":4895:4896   */\n      0x00\n        /* \"#utility.yul\":4884:4893   */\n      dup4\n        /* \"#utility.yul\":4880:4897   */\n      add\n        /* \"#utility.yul\":4871:4877   */\n      dup5\n        /* \"#utility.yul\":4827:4898   */\n      tag_114\n      jump\t// in\n    tag_180:\n        /* \"#utility.yul\":4683:4905   */\n      swap3\n      swap2\n      pop\n      pop\n      jump\t// out\n        /* \"#utility.yul\":4911:5091   */\n    tag_115:\n        /* \"#utility.yul\":4959:5036   */\n      0x4e487b7100000000000000000000000000000000000000000000000000000000\n        /* \"#utility.yul\":4956:4957   */\n      0x00\n        /* \"#utility.yul\":4949:5037   */\n      mstore\n        /* \"#utility.yul\":5056:5060   */\n      0x22\n        /* \"#utility.yul\":5053:5054   */\n      0x04\n        /* \"#utility.yul\":5046:5061   */\n      mstore\n        /* \"#utility.yul\":5080:5084   */\n      0x24\n        /* \"#utility.yul\":5077:5078   */\n      0x00\n        /* \"#utility.yul\":5070:5085   */\n      revert\n        /* \"#utility.yul\":5097:5417   */\n    tag_49:\n        /* \"#utility.yul\":5141:5147   */\n      0x00\n        /* \"#utility.yul\":5178:5179   */\n      0x02\n        /* \"#utility.yul\":5172:5176   */\n      dup3\n        /* \"#utility.yul\":5168:5180   */\n      div\n        /* \"#utility.yul\":5158:5180   */\n      swap1\n      pop\n        /* \"#utility.yul\":5225:5226   */\n      0x01\n        /* \"#utility.yul\":5219:5223   */\n      dup3\n        /* \"#utility.yul\":5215:5227   */\n      and\n        /* \"#utility.yul\":5246:5264   */\n      dup1\n        /* \"#utility.yul\":5236:5317   */\n      tag_183\n      jumpi\n        /* \"#utility.yul\":5302:5306   */\n      0x7f\n        /* \"#utility.yul\":5294:5300   */\n      dup3\n        /* \"#utility.yul\":5290:5307   */\n      and\n        /* \"#utility.yul\":5280:5307   */\n      swap2\n      pop\n        /* \"#utility.yul\":5236:5317   */\n    tag_183:\n        /* \"#utility.yul\":5364:5366   */\n      0x20\n        /* \"#utility.yul\":5356:5362   */\n      dup3\n        /* \"#utility.yul\":5353:5367   */\n      lt\n        /* \"#utility.yul\":5333:5351   */\n      dup2\n        /* \"#utility.yul\":5330:5368   */\n      sub\n        /* \"#utility.yul\":5327:5411   */\n      tag_184\n      jumpi\n        /* \"#utility.yul\":5383:5401   */\n      tag_185\n      tag_115\n      jump\t// in\n    tag_185:\n        /* \"#utility.yul\":5327:5411   */\n    tag_184:\n        /* \"#utility.yul\":5148:5417   */\n      pop\n        /* \"#utility.yul\":5097:5417   */\n      swap2\n      swap1\n      pop\n      jump\t// out\n        /* \"#utility.yul\":5423:5588   */\n    tag_116:\n        /* \"#utility.yul\":5563:5580   */\n      0x496e76616c696420616464726573730000000000000000000000000000000000\n        /* \"#utility.yul\":5559:5560   */\n      0x00\n        /* \"#utility.yul\":5551:5557   */\n      dup3\n        /* \"#utility.yul\":5547:5561   */\n      add\n        /* \"#utility.yul\":5540:5581   */\n      mstore\n        /* \"#utility.yul\":5423:5588   */\n      pop\n      jump\t// out\n        /* \"#utility.yul\":5594:5960   */\n    tag_117:\n        /* \"#utility.yul\":5736:5739   */\n      0x00\n        /* \"#utility.yul\":5757:5824   */\n      tag_188\n        /* \"#utility.yul\":5821:5823   */\n      0x0f\n        /* \"#utility.yul\":5816:5819   */\n      dup4\n        /* \"#utility.yul\":5757:5824   */\n      tag_99\n      jump\t// in\n    tag_188:\n        /* \"#utility.yul\":5750:5824   */\n      swap2\n      pop\n        /* \"#utility.yul\":5833:5926   */\n      tag_189\n        /* \"#utility.yul\":5922:5925   */\n      dup3\n        /* \"#utility.yul\":5833:5926   */\n      tag_116\n      jump\t// in\n    tag_189:\n        /* \"#utility.yul\":5951:5953   */\n      0x20\n        /* \"#utility.yul\":5946:5949   */\n      dup3\n        /* \"#utility.yul\":5942:5954   */\n      add\n        /* \"#utility.yul\":5935:5954   */\n      swap1\n      pop\n        /* \"#utility.yul\":5594:5960   */\n      swap2\n      swap1\n      pop\n      jump\t// out\n        /* \"#utility.yul\":5966:6385   */\n    tag_57:\n        /* \"#utility.yul\":6132:6136   */\n      0x00\n        /* \"#utility.yul\":6170:6172   */\n      0x20\n        /* \"#utility.yul\":6159:6168   */\n      dup3\n        /* \"#utility.yul\":6155:6173   */\n      add\n        /* \"#utility.yul\":6147:6173   */\n      swap1\n      pop\n        /* \"#utility.yul\":6219:6228   */\n      dup2\n        /* \"#utility.yul\":6213:6217   */\n      dup2\n        /* \"#utility.yul\":6209:6229   */\n      sub\n        /* \"#utility.yul\":6205:6206   */\n      0x00\n        /* \"#utility.yul\":6194:6203   */\n      dup4\n        /* \"#utility.yul\":6190:6207   */\n      add\n        /* \"#utility.yul\":6183:6230   */\n      mstore\n        /* \"#utility.yul\":6247:6378   */\n      tag_191\n        /* \"#utility.yul\":6373:6377   */\n      dup2\n        /* \"#utility.yul\":6247:6378   */\n      tag_117\n      jump\t// in\n    tag_191:\n        /* \"#utility.yul\":6239:6378   */\n      swap1\n      pop\n        /* \"#utility.yul\":5966:6385   */\n      swap2\n      swap1\n      pop\n      jump\t// out\n        /* \"#utility.yul\":6391:6555   */\n    tag_118:\n        /* \"#utility.yul\":6531:6547   */\n      0x496e76616c696420616d6f756e74000000000000000000000000000000000000\n        /* \"#utility.yul\":6527:6528   */\n      0x00\n        /* \"#utility.yul\":6519:6525   */\n      dup3\n        /* \"#utility.yul\":6515:6529   */\n      add\n        /* \"#utility.yul\":6508:6548   */\n      mstore\n        /* \"#utility.yul\":6391:6555   */\n      pop\n      jump\t// out\n        /* \"#utility.yul\":6561:6927   */\n    tag_119:\n        /* \"#utility.yul\":6703:6706   */\n      0x00\n        /* \"#utility.yul\":6724:6791   */\n      tag_194\n        /* \"#utility.yul\":6788:6790   */\n      0x0e\n        /* \"#utility.yul\":6783:6786   */\n      dup4\n        /* \"#utility.yul\":6724:6791   */\n      tag_99\n      jump\t// in\n    tag_194:\n        /* \"#utility.yul\":6717:6791   */\n      swap2\n      pop\n        /* \"#utility.yul\":6800:6893   */\n      tag_195\n        /* \"#utility.yul\":6889:6892   */\n      dup3\n        /* \"#utility.yul\":6800:6893   */\n      tag_118\n      jump\t// in\n    tag_195:\n        /* \"#utility.yul\":6918:6920   */\n      0x20\n        /* \"#utility.yul\":6913:6916   */\n      dup3\n        /* \"#utility.yul\":6909:6921   */\n      add\n        /* \"#utility.yul\":6902:6921   */\n      swap1\n      pop\n        /* \"#utility.yul\":6561:6927   */\n      swap2\n      swap1\n      pop\n      jump\t// out\n        /* \"#utility.yul\":6933:7352   */\n    tag_60:\n        /* \"#utility.yul\":7099:7103   */\n      0x00\n        /* \"#utility.yul\":7137:7139   */\n      0x20\n        /* \"#utility.yul\":7126:7135   */\n      dup3\n        /* \"#utility.yul\":7122:7140   */\n      add\n        /* \"#utility.yul\":7114:7140   */\n      swap1\n      pop\n        /* \"#utility.yul\":7186:7195   */\n      dup2\n        /* \"#utility.yul\":7180:7184   */\n      dup2\n        /* \"#utility.yul\":7176:7196   */\n      sub\n        /* \"#utility.yul\":7172:7173   */\n      0x00\n        /* \"#utility.yul\":7161:7170   */\n      dup4\n        /* \"#utility.yul\":7157:7174   */\n      add\n        /* \"#utility.yul\":7150:7197   */\n      mstore\n        /* \"#utility.yul\":7214:7345   */\n      tag_197\n        /* \"#utility.yul\":7340:7344   */\n      dup2\n        /* \"#utility.yul\":7214:7345   */\n      tag_119\n      jump\t// in\n    tag_197:\n        /* \"#utility.yul\":7206:7345   */\n      swap1\n      pop\n        /* \"#utility.yul\":6933:7352   */\n      swap2\n      swap1\n      pop\n      jump\t// out\n        /* \"#utility.yul\":7358:7528   */\n    tag_120:\n        /* \"#utility.yul\":7498:7520   */\n      0x496e73756666696369656e742062616c616e6365000000000000000000000000\n        /* \"#utility.yul\":7494:7495   */\n      0x00\n        /* \"#utility.yul\":7486:7492   */\n      dup3\n        /* \"#utility.yul\":7482:7496   */\n      add\n        /* \"#utility.yul\":7475:7521   */\n      mstore\n        /* \"#utility.yul\":7358:7528   */\n      pop\n      jump\t// out\n        /* \"#utility.yul\":7534:7900   */\n    tag_121:\n        /* \"#utility.yul\":7676:7679   */\n      0x00\n        /* \"#utility.yul\":7697:7764   */\n      tag_200\n        /* \"#utility.yul\":7761:7763   */\n      0x14\n        /* \"#utility.yul\":7756:7759   */\n      dup4\n        /* \"#utility.yul\":7697:7764   */\n      tag_99\n      jump\t// in\n    tag_200:\n        /* \"#utility.yul\":7690:7764   */\n      swap2\n      pop\n        /* \"#utility.yul\":7773:7866   */\n      tag_201\n        /* \"#utility.yul\":7862:7865   */\n      dup3\n        /* \"#utility.yul\":7773:7866   */\n      tag_120\n      jump\t// in\n    tag_201:\n        /* \"#utility.yul\":7891:7893   */\n      0x20\n        /* \"#utility.yul\":7886:7889   */\n      dup3\n        /* \"#utility.yul\":7882:7894   */\n      add\n        /* \"#utility.yul\":7875:7894   */\n      swap1\n      pop\n        /* \"#utility.yul\":7534:7900   */\n      swap2\n      swap1\n      pop\n      jump\t// out\n        /* \"#utility.yul\":7906:8325   */\n    tag_63:\n        /* \"#utility.yul\":8072:8076   */\n      0x00\n        /* \"#utility.yul\":8110:8112   */\n      0x20\n        /* \"#utility.yul\":8099:8108   */\n      dup3\n        /* \"#utility.yul\":8095:8113   */\n      add\n        /* \"#utility.yul\":8087:8113   */\n      swap1\n      pop\n        /* \"#utility.yul\":8159:8168   */\n      dup2\n        /* \"#utility.yul\":8153:8157   */\n      dup2\n        /* \"#utility.yul\":8149:8169   */\n      sub\n        /* \"#utility.yul\":8145:8146   */\n      0x00\n        /* \"#utility.yul\":8134:8143   */\n      dup4\n        /* \"#utility.yul\":8130:8147   */\n      add\n        /* \"#utility.yul\":8123:8170   */\n      mstore\n        /* \"#utility.yul\":8187:8318   */\n      tag_203\n        /* \"#utility.yul\":8313:8317   */\n      dup2\n        /* \"#utility.yul\":8187:8318   */\n      tag_121\n      jump\t// in\n    tag_203:\n        /* \"#utility.yul\":8179:8318   */\n      swap1\n      pop\n        /* \"#utility.yul\":7906:8325   */\n      swap2\n      swap1\n      pop\n      jump\t// out\n        /* \"#utility.yul\":8331:8511   */\n    tag_122:\n        /* \"#utility.yul\":8379:8456   */\n      0x4e487b7100000000000000000000000000000000000000000000000000000000\n        /* \"#utility.yul\":8376:8377   */\n      0x00\n        /* \"#utility.yul\":8369:8457   */\n      mstore\n        /* \"#utility.yul\":8476:8480   */\n      0x11\n        /* \"#utility.yul\":8473:8474   */\n      0x04\n        /* \"#utility.yul\":8466:8481   */\n      mstore\n        /* \"#utility.yul\":8500:8504   */\n      0x24\n        /* \"#utility.yul\":8497:8498   */\n      0x00\n        /* \"#utility.yul\":8490:8505   */\n      revert\n        /* \"#utility.yul\":8517:8711   */\n    tag_65:\n        /* \"#utility.yul\":8557:8561   */\n      0x00\n        /* \"#utility.yul\":8577:8597   */\n      tag_206\n        /* \"#utility.yul\":8595:8596   */\n      dup3\n        /* \"#utility.yul\":8577:8597   */\n      tag_103\n      jump\t// in\n    tag_206:\n        /* \"#utility.yul\":8572:8597   */\n      swap2\n      pop\n        /* \"#utility.yul\":8611:8631   */\n      tag_207\n        /* \"#utility.yul\":8629:8630   */\n      dup4\n        /* \"#utility.yul\":8611:8631   */\n      tag_103\n      jump\t// in\n    tag_207:\n        /* \"#utility.yul\":8606:8631   */\n      swap3\n      pop\n        /* \"#utility.yul\":8655:8656   */\n      dup3\n        /* \"#utility.yul\":8652:8653   */\n      dup3\n        /* \"#utility.yul\":8648:8657   */\n      sub\n        /* \"#utility.yul\":8640:8657   */\n      swap1\n      pop\n        /* \"#utility.yul\":8679:8680   */\n      dup2\n        /* \"#utility.yul\":8673:8677   */\n      dup2\n        /* \"#utility.yul\":8670:8681   */\n      gt\n        /* \"#utility.yul\":8667:8704   */\n      iszero\n      tag_208\n      jumpi\n        /* \"#utility.yul\":8684:8702   */\n      tag_209\n      tag_122\n      jump\t// in\n    tag_209:\n        /* \"#utility.yul\":8667:8704   */\n    tag_208:\n        /* \"#utility.yul\":8517:8711   */\n      swap3\n      swap2\n      pop\n      pop\n      jump\t// out\n        /* \"#utility.yul\":8717:8908   */\n    tag_67:\n        /* \"#utility.yul\":8757:8760   */\n      0x00\n        /* \"#utility.yul\":8776:8796   */\n      tag_211\n        /* \"#utility.yul\":8794:8795   */\n      dup3\n        /* \"#utility.yul\":8776:8796   */\n      tag_103\n      jump\t// in\n    tag_211:\n        /* \"#utility.yul\":8771:8796   */\n      swap2\n      pop\n        /* \"#utility.yul\":8810:8830   */\n      tag_212\n        /* \"#utility.yul\":8828:8829   */\n      dup4\n        /* \"#utility.yul\":8810:8830   */\n      tag_103\n      jump\t// in\n    tag_212:\n        /* \"#utility.yul\":8805:8830   */\n      swap3\n      pop\n        /* \"#utility.yul\":8853:8854   */\n      dup3\n        /* \"#utility.yul\":8850:8851   */\n      dup3\n        /* \"#utility.yul\":8846:8855   */\n      add\n        /* \"#utility.yul\":8839:8855   */\n      swap1\n      pop\n        /* \"#utility.yul\":8874:8877   */\n      dup1\n        /* \"#utility.yul\":8871:8872   */\n      dup3\n        /* \"#utility.yul\":8868:8878   */\n      gt\n        /* \"#utility.yul\":8865:8901   */\n      iszero\n      tag_213\n      jumpi\n        /* \"#utility.yul\":8881:8899   */\n      tag_214\n      tag_122\n      jump\t// in\n    tag_214:\n        /* \"#utility.yul\":8865:8901   */\n    tag_213:\n        /* \"#utility.yul\":8717:8908   */\n      swap3\n      swap2\n      pop\n      pop\n      jump\t// out\n        /* \"#utility.yul\":8914:9143   */\n    tag_123:\n        /* \"#utility.yul\":9054:9088   */\n      0x4f6e6c7920636f6e7472616374206f776e65722063616e2063616c6c20746869\n        /* \"#utility.yul\":9050:9051   */\n      0x00\n        /* \"#utility.yul\":9042:9048   */\n      dup3\n        /* \"#utility.yul\":9038:9052   */\n      add\n        /* \"#utility.yul\":9031:9089   */\n      mstore\n        /* \"#utility.yul\":9123:9135   */\n      0x732066756e6374696f6e00000000000000000000000000000000000000000000\n        /* \"#utility.yul\":9118:9120   */\n      0x20\n        /* \"#utility.yul\":9110:9116   */\n      dup3\n        /* \"#utility.yul\":9106:9121   */\n      add\n        /* \"#utility.yul\":9099:9136   */\n      mstore\n        /* \"#utility.yul\":8914:9143   */\n      pop\n      jump\t// out\n        /* \"#utility.yul\":9149:9515   */\n    tag_124:\n        /* \"#utility.yul\":9291:9294   */\n      0x00\n        /* \"#utility.yul\":9312:9379   */\n      tag_217\n        /* \"#utility.yul\":9376:9378   */\n      0x2a\n        /* \"#utility.yul\":9371:9374   */\n      dup4\n        /* \"#utility.yul\":9312:9379   */\n      tag_99\n      jump\t// in\n    tag_217:\n        /* \"#utility.yul\":9305:9379   */\n      swap2\n      pop\n        /* \"#utility.yul\":9388:9481   */\n      tag_218\n        /* \"#utility.yul\":9477:9480   */\n      dup3\n        /* \"#utility.yul\":9388:9481   */\n      tag_123\n      jump\t// in\n    tag_218:\n        /* \"#utility.yul\":9506:9508   */\n      0x40\n        /* \"#utility.yul\":9501:9504   */\n      dup3\n        /* \"#utility.yul\":9497:9509   */\n      add\n        /* \"#utility.yul\":9490:9509   */\n      swap1\n      pop\n        /* \"#utility.yul\":9149:9515   */\n      swap2\n      swap1\n      pop\n      jump\t// out\n        /* \"#utility.yul\":9521:9940   */\n    tag_71:\n        /* \"#utility.yul\":9687:9691   */\n      0x00\n        /* \"#utility.yul\":9725:9727   */\n      0x20\n        /* \"#utility.yul\":9714:9723   */\n      dup3\n        /* \"#utility.yul\":9710:9728   */\n      add\n        /* \"#utility.yul\":9702:9728   */\n      swap1\n      pop\n        /* \"#utility.yul\":9774:9783   */\n      dup2\n        /* \"#utility.yul\":9768:9772   */\n      dup2\n        /* \"#utility.yul\":9764:9784   */\n      sub\n        /* \"#utility.yul\":9760:9761   */\n      0x00\n        /* \"#utility.yul\":9749:9758   */\n      dup4\n        /* \"#utility.yul\":9745:9762   */\n      add\n        /* \"#utility.yul\":9738:9785   */\n      mstore\n        /* \"#utility.yul\":9802:9933   */\n      tag_220\n        /* \"#utility.yul\":9928:9932   */\n      dup2\n        /* \"#utility.yul\":9802:9933   */\n      tag_124\n      jump\t// in\n    tag_220:\n        /* \"#utility.yul\":9794:9933   */\n      swap1\n      pop\n        /* \"#utility.yul\":9521:9940   */\n      swap2\n      swap1\n      pop\n      jump\t// out\n\n    auxdata: 0xa2646970667358221220fa18e1767f3a83a96d0d3fd93d4def0f255a20baf1a4cee19393ca0ad6107de864736f6c634300081a0033\n}\n",
				"bytecode": {
					"linkReferences": {},
					"object": "608060405234801561000f575f80fd5b506040518060400160405280600981526020017f416c706861436f696e00000000000000000000000000000000000000000000008152505f90816100539190610318565b506040518060400160405280600381526020017f4153470000000000000000000000000000000000000000000000000000000000815250600190816100989190610318565b503360045f6101000a81548173ffffffffffffffffffffffffffffffffffffffff021916908373ffffffffffffffffffffffffffffffffffffffff1602179055506103e7565b5f81519050919050565b7f4e487b71000000000000000000000000000000000000000000000000000000005f52604160045260245ffd5b7f4e487b71000000000000000000000000000000000000000000000000000000005f52602260045260245ffd5b5f600282049050600182168061015957607f821691505b60208210810361016c5761016b610115565b5b50919050565b5f819050815f5260205f209050919050565b5f6020601f8301049050919050565b5f82821b905092915050565b5f600883026101ce7fffffffffffffffffffffffffffffffffffffffffffffffffffffffffffffffff82610193565b6101d88683610193565b95508019841693508086168417925050509392505050565b5f819050919050565b5f819050919050565b5f61021c610217610212846101f0565b6101f9565b6101f0565b9050919050565b5f819050919050565b61023583610202565b61024961024182610223565b84845461019f565b825550505050565b5f90565b61025d610251565b61026881848461022c565b505050565b5b8181101561028b576102805f82610255565b60018101905061026e565b5050565b601f8211156102d0576102a181610172565b6102aa84610184565b810160208510156102b9578190505b6102cd6102c585610184565b83018261026d565b50505b505050565b5f82821c905092915050565b5f6102f05f19846008026102d5565b1980831691505092915050565b5f61030883836102e1565b9150826002028217905092915050565b610321826100de565b67ffffffffffffffff81111561033a576103396100e8565b5b6103448254610142565b61034f82828561028f565b5f60209050601f831160018114610380575f841561036e578287015190505b61037885826102fd565b8655506103df565b601f19841661038e86610172565b5f5b828110156103b557848901518255600182019150602085019450602081019050610390565b868310156103d257848901516103ce601f8916826102e1565b8355505b6001600288020188555050505b505050505050565b610e96806103f45f395ff3fe608060405234801561000f575f80fd5b5060043610610091575f3560e01c806340c10f191161006457806340c10f191461011d57806342966c68146101395780638da5cb5b1461015557806395d89b4114610173578063a9059cbb1461019157610091565b806306fdde031461009557806318160ddd146100b357806323b872dd146100d157806327e235e3146100ed575b5f80fd5b61009d6101ad565b6040516100aa91906109c5565b60405180910390f35b6100bb610238565b6040516100c891906109fd565b60405180910390f35b6100eb60048036038101906100e69190610a9e565b61023e565b005b61010760048036038101906101029190610aee565b610419565b60405161011491906109fd565b60405180910390f35b61013760048036038101906101329190610b19565b61042e565b005b610153600480360381019061014e9190610b57565b61059a565b005b61015d6106ca565b60405161016a9190610b91565b60405180910390f35b61017b6106ef565b60405161018891906109c5565b60405180910390f35b6101ab60048036038101906101a69190610b19565b61077b565b005b5f80546101b990610bd7565b80601f01602080910402602001604051908101604052809291908181526020018280546101e590610bd7565b80156102305780601f1061020757610100808354040283529160200191610230565b820191905f5260205f20905b81548152906001019060200180831161021357829003601f168201915b505050505081565b60025481565b5f73ffffffffffffffffffffffffffffffffffffffff168273ffffffffffffffffffffffffffffffffffffffff16036102ac576040517f08c379a00000000000000000000000000000000000000000000000000000000081526004016102a390610c51565b60405180910390fd5b5f81116102ee576040517f08c379a00000000000000000000000000000000000000000000000000000000081526004016102e590610cb9565b60405180910390fd5b8060035f3373ffffffffffffffffffffffffffffffffffffffff1673ffffffffffffffffffffffffffffffffffffffff1681526020019081526020015f2054101561036e576040517f08c379a000000000000000000000000000000000000000000000000000000000815260040161036590610d21565b60405180910390fd5b8060035f8573ffffffffffffffffffffffffffffffffffffffff1673ffffffffffffffffffffffffffffffffffffffff1681526020019081526020015f205f8282546103ba9190610d6c565b925050819055508060035f8473ffffffffffffffffffffffffffffffffffffffff1673ffffffffffffffffffffffffffffffffffffffff1681526020019081526020015f205f82825461040d9190610d9f565b92505081905550505050565b6003602052805f5260405f205f915090505481565b60045f9054906101000a900473ffffffffffffffffffffffffffffffffffffffff1673ffffffffffffffffffffffffffffffffffffffff163373ffffffffffffffffffffffffffffffffffffffff16146104bd576040517f08c379a00000000000000000000000000000000000000000000000000000000081526004016104b490610e42565b60405180910390fd5b5f73ffffffffffffffffffffffffffffffffffffffff168273ffffffffffffffffffffffffffffffffffffffff160361052b576040517f08c379a000000000000000000000000000000000000000000000000000000000815260040161052290610c51565b60405180910390fd5b8060025f82825461053c9190610d9f565b925050819055508060035f8473ffffffffffffffffffffffffffffffffffffffff1673ffffffffffffffffffffffffffffffffffffffff1681526020019081526020015f205f82825461058f9190610d9f565b925050819055505050565b5f81116105dc576040517f08c379a00000000000000000000000000000000000000000000000000000000081526004016105d390610cb9565b60405180910390fd5b8060035f3373ffffffffffffffffffffffffffffffffffffffff1673ffffffffffffffffffffffffffffffffffffffff1681526020019081526020015f2054101561065c576040517f08c379a000000000000000000000000000000000000000000000000000000000815260040161065390610d21565b60405180910390fd5b8060025f82825461066d9190610d6c565b925050819055508060035f3373ffffffffffffffffffffffffffffffffffffffff1673ffffffffffffffffffffffffffffffffffffffff1681526020019081526020015f205f8282546106c09190610d6c565b9250508190555050565b60045f9054906101000a900473ffffffffffffffffffffffffffffffffffffffff1681565b600180546106fc90610bd7565b80601f016020809104026020016040519081016040528092919081815260200182805461072890610bd7565b80156107735780601f1061074a57610100808354040283529160200191610773565b820191905f5260205f20905b81548152906001019060200180831161075657829003601f168201915b505050505081565b5f73ffffffffffffffffffffffffffffffffffffffff168273ffffffffffffffffffffffffffffffffffffffff16036107e9576040517f08c379a00000000000000000000000000000000000000000000000000000000081526004016107e090610c51565b60405180910390fd5b5f811161082b576040517f08c379a000000000000000000000000000000000000000000000000000000000815260040161082290610cb9565b60405180910390fd5b8060035f3373ffffffffffffffffffffffffffffffffffffffff1673ffffffffffffffffffffffffffffffffffffffff1681526020019081526020015f205410156108ab576040517f08c379a00000000000000000000000000000000000000000000000000000000081526004016108a290610d21565b60405180910390fd5b8060035f3373ffffffffffffffffffffffffffffffffffffffff1673ffffffffffffffffffffffffffffffffffffffff1681526020019081526020015f205f8282546108f79190610d6c565b925050819055508060035f8473ffffffffffffffffffffffffffffffffffffffff1673ffffffffffffffffffffffffffffffffffffffff1681526020019081526020015f205f82825461094a9190610d9f565b925050819055505050565b5f81519050919050565b5f82825260208201905092915050565b8281835e5f83830152505050565b5f601f19601f8301169050919050565b5f61099782610955565b6109a1818561095f565b93506109b181856020860161096f565b6109ba8161097d565b840191505092915050565b5f6020820190508181035f8301526109dd818461098d565b905092915050565b5f819050919050565b6109f7816109e5565b82525050565b5f602082019050610a105f8301846109ee565b92915050565b5f80fd5b5f73ffffffffffffffffffffffffffffffffffffffff82169050919050565b5f610a4382610a1a565b9050919050565b610a5381610a39565b8114610a5d575f80fd5b50565b5f81359050610a6e81610a4a565b92915050565b610a7d816109e5565b8114610a87575f80fd5b50565b5f81359050610a9881610a74565b92915050565b5f805f60608486031215610ab557610ab4610a16565b5b5f610ac286828701610a60565b9350506020610ad386828701610a60565b9250506040610ae486828701610a8a565b9150509250925092565b5f60208284031215610b0357610b02610a16565b5b5f610b1084828501610a60565b91505092915050565b5f8060408385031215610b2f57610b2e610a16565b5b5f610b3c85828601610a60565b9250506020610b4d85828601610a8a565b9150509250929050565b5f60208284031215610b6c57610b6b610a16565b5b5f610b7984828501610a8a565b91505092915050565b610b8b81610a39565b82525050565b5f602082019050610ba45f830184610b82565b92915050565b7f4e487b71000000000000000000000000000000000000000000000000000000005f52602260045260245ffd5b5f6002820490506001821680610bee57607f821691505b602082108103610c0157610c00610baa565b5b50919050565b7f496e76616c6964206164647265737300000000000000000000000000000000005f82015250565b5f610c3b600f8361095f565b9150610c4682610c07565b602082019050919050565b5f6020820190508181035f830152610c6881610c2f565b9050919050565b7f496e76616c696420616d6f756e740000000000000000000000000000000000005f82015250565b5f610ca3600e8361095f565b9150610cae82610c6f565b602082019050919050565b5f6020820190508181035f830152610cd081610c97565b9050919050565b7f496e73756666696369656e742062616c616e63650000000000000000000000005f82015250565b5f610d0b60148361095f565b9150610d1682610cd7565b602082019050919050565b5f6020820190508181035f830152610d3881610cff565b9050919050565b7f4e487b71000000000000000000000000000000000000000000000000000000005f52601160045260245ffd5b5f610d76826109e5565b9150610d81836109e5565b9250828203905081811115610d9957610d98610d3f565b5b92915050565b5f610da9826109e5565b9150610db4836109e5565b9250828201905080821115610dcc57610dcb610d3f565b5b92915050565b7f4f6e6c7920636f6e7472616374206f776e65722063616e2063616c6c207468695f8201527f732066756e6374696f6e00000000000000000000000000000000000000000000602082015250565b5f610e2c602a8361095f565b9150610e3782610dd2565b604082019050919050565b5f6020820190508181035f830152610e5981610e20565b905091905056fea2646970667358221220fa18e1767f3a83a96d0d3fd93d4def0f255a20baf1a4cee19393ca0ad6107de864736f6c634300081a0033",
					"opcodes": "PUSH1 0x80 PUSH1 0x40 MSTORE CALLVALUE DUP1 ISZERO PUSH2 0xF JUMPI PUSH0 DUP1 REVERT JUMPDEST POP PUSH1 0x40 MLOAD DUP1 PUSH1 0x40 ADD PUSH1 0x40 MSTORE DUP1 PUSH1 0x9 DUP2 MSTORE PUSH1 0x20 ADD PUSH32 0x416C706861436F696E0000000000000000000000000000000000000000000000 DUP2 MSTORE POP PUSH0 SWAP1 DUP2 PUSH2 0x53 SWAP2 SWAP1 PUSH2 0x318 JUMP JUMPDEST POP PUSH1 0x40 MLOAD DUP1 PUSH1 0x40 ADD PUSH1 0x40 MSTORE DUP1 PUSH1 0x3 DUP2 MSTORE PUSH1 0x20 ADD PUSH32 0x4153470000000000000000000000000000000000000000000000000000000000 DUP2 MSTORE POP PUSH1 0x1 SWAP1 DUP2 PUSH2 0x98 SWAP2 SWAP1 PUSH2 0x318 JUMP JUMPDEST POP CALLER PUSH1 0x4 PUSH0 PUSH2 0x100 EXP DUP2 SLOAD DUP2 PUSH20 0xFFFFFFFFFFFFFFFFFFFFFFFFFFFFFFFFFFFFFFFF MUL NOT AND SWAP1 DUP4 PUSH20 0xFFFFFFFFFFFFFFFFFFFFFFFFFFFFFFFFFFFFFFFF AND MUL OR SWAP1 SSTORE POP PUSH2 0x3E7 JUMP JUMPDEST PUSH0 DUP2 MLOAD SWAP1 POP SWAP2 SWAP1 POP JUMP JUMPDEST PUSH32 0x4E487B7100000000000000000000000000000000000000000000000000000000 PUSH0 MSTORE PUSH1 0x41 PUSH1 0x4 MSTORE PUSH1 0x24 PUSH0 REVERT JUMPDEST PUSH32 0x4E487B7100000000000000000000000000000000000000000000000000000000 PUSH0 MSTORE PUSH1 0x22 PUSH1 0x4 MSTORE PUSH1 0x24 PUSH0 REVERT JUMPDEST PUSH0 PUSH1 0x2 DUP3 DIV SWAP1 POP PUSH1 0x1 DUP3 AND DUP1 PUSH2 0x159 JUMPI PUSH1 0x7F DUP3 AND SWAP2 POP JUMPDEST PUSH1 0x20 DUP3 LT DUP2 SUB PUSH2 0x16C JUMPI PUSH2 0x16B PUSH2 0x115 JUMP JUMPDEST JUMPDEST POP SWAP2 SWAP1 POP JUMP JUMPDEST PUSH0 DUP2 SWAP1 POP DUP2 PUSH0 MSTORE PUSH1 0x20 PUSH0 KECCAK256 SWAP1 POP SWAP2 SWAP1 POP JUMP JUMPDEST PUSH0 PUSH1 0x20 PUSH1 0x1F DUP4 ADD DIV SWAP1 POP SWAP2 SWAP1 POP JUMP JUMPDEST PUSH0 DUP3 DUP3 SHL SWAP1 POP SWAP3 SWAP2 POP POP JUMP JUMPDEST PUSH0 PUSH1 0x8 DUP4 MUL PUSH2 0x1CE PUSH32 0xFFFFFFFFFFFFFFFFFFFFFFFFFFFFFFFFFFFFFFFFFFFFFFFFFFFFFFFFFFFFFFFF DUP3 PUSH2 0x193 JUMP JUMPDEST PUSH2 0x1D8 DUP7 DUP4 PUSH2 0x193 JUMP JUMPDEST SWAP6 POP DUP1 NOT DUP5 AND SWAP4 POP DUP1 DUP7 AND DUP5 OR SWAP3 POP POP POP SWAP4 SWAP3 POP POP POP JUMP JUMPDEST PUSH0 DUP2 SWAP1 POP SWAP2 SWAP1 POP JUMP JUMPDEST PUSH0 DUP2 SWAP1 POP SWAP2 SWAP1 POP JUMP JUMPDEST PUSH0 PUSH2 0x21C PUSH2 0x217 PUSH2 0x212 DUP5 PUSH2 0x1F0 JUMP JUMPDEST PUSH2 0x1F9 JUMP JUMPDEST PUSH2 0x1F0 JUMP JUMPDEST SWAP1 POP SWAP2 SWAP1 POP JUMP JUMPDEST PUSH0 DUP2 SWAP1 POP SWAP2 SWAP1 POP JUMP JUMPDEST PUSH2 0x235 DUP4 PUSH2 0x202 JUMP JUMPDEST PUSH2 0x249 PUSH2 0x241 DUP3 PUSH2 0x223 JUMP JUMPDEST DUP5 DUP5 SLOAD PUSH2 0x19F JUMP JUMPDEST DUP3 SSTORE POP POP POP POP JUMP JUMPDEST PUSH0 SWAP1 JUMP JUMPDEST PUSH2 0x25D PUSH2 0x251 JUMP JUMPDEST PUSH2 0x268 DUP2 DUP5 DUP5 PUSH2 0x22C JUMP JUMPDEST POP POP POP JUMP JUMPDEST JUMPDEST DUP2 DUP2 LT ISZERO PUSH2 0x28B JUMPI PUSH2 0x280 PUSH0 DUP3 PUSH2 0x255 JUMP JUMPDEST PUSH1 0x1 DUP2 ADD SWAP1 POP PUSH2 0x26E JUMP JUMPDEST POP POP JUMP JUMPDEST PUSH1 0x1F DUP3 GT ISZERO PUSH2 0x2D0 JUMPI PUSH2 0x2A1 DUP2 PUSH2 0x172 JUMP JUMPDEST PUSH2 0x2AA DUP5 PUSH2 0x184 JUMP JUMPDEST DUP2 ADD PUSH1 0x20 DUP6 LT ISZERO PUSH2 0x2B9 JUMPI DUP2 SWAP1 POP JUMPDEST PUSH2 0x2CD PUSH2 0x2C5 DUP6 PUSH2 0x184 JUMP JUMPDEST DUP4 ADD DUP3 PUSH2 0x26D JUMP JUMPDEST POP POP JUMPDEST POP POP POP JUMP JUMPDEST PUSH0 DUP3 DUP3 SHR SWAP1 POP SWAP3 SWAP2 POP POP JUMP JUMPDEST PUSH0 PUSH2 0x2F0 PUSH0 NOT DUP5 PUSH1 0x8 MUL PUSH2 0x2D5 JUMP JUMPDEST NOT DUP1 DUP4 AND SWAP2 POP POP SWAP3 SWAP2 POP POP JUMP JUMPDEST PUSH0 PUSH2 0x308 DUP4 DUP4 PUSH2 0x2E1 JUMP JUMPDEST SWAP2 POP DUP3 PUSH1 0x2 MUL DUP3 OR SWAP1 POP SWAP3 SWAP2 POP POP JUMP JUMPDEST PUSH2 0x321 DUP3 PUSH2 0xDE JUMP JUMPDEST PUSH8 0xFFFFFFFFFFFFFFFF DUP2 GT ISZERO PUSH2 0x33A JUMPI PUSH2 0x339 PUSH2 0xE8 JUMP JUMPDEST JUMPDEST PUSH2 0x344 DUP3 SLOAD PUSH2 0x142 JUMP JUMPDEST PUSH2 0x34F DUP3 DUP3 DUP6 PUSH2 0x28F JUMP JUMPDEST PUSH0 PUSH1 0x20 SWAP1 POP PUSH1 0x1F DUP4 GT PUSH1 0x1 DUP2 EQ PUSH2 0x380 JUMPI PUSH0 DUP5 ISZERO PUSH2 0x36E JUMPI DUP3 DUP8 ADD MLOAD SWAP1 POP JUMPDEST PUSH2 0x378 DUP6 DUP3 PUSH2 0x2FD JUMP JUMPDEST DUP7 SSTORE POP PUSH2 0x3DF JUMP JUMPDEST PUSH1 0x1F NOT DUP5 AND PUSH2 0x38E DUP7 PUSH2 0x172 JUMP JUMPDEST PUSH0 JUMPDEST DUP3 DUP2 LT ISZERO PUSH2 0x3B5 JUMPI DUP5 DUP10 ADD MLOAD DUP3 SSTORE PUSH1 0x1 DUP3 ADD SWAP2 POP PUSH1 0x20 DUP6 ADD SWAP5 POP PUSH1 0x20 DUP2 ADD SWAP1 POP PUSH2 0x390 JUMP JUMPDEST DUP7 DUP4 LT ISZERO PUSH2 0x3D2 JUMPI DUP5 DUP10 ADD MLOAD PUSH2 0x3CE PUSH1 0x1F DUP10 AND DUP3 PUSH2 0x2E1 JUMP JUMPDEST DUP4 SSTORE POP JUMPDEST PUSH1 0x1 PUSH1 0x2 DUP9 MUL ADD DUP9 SSTORE POP POP POP JUMPDEST POP POP POP POP POP POP JUMP JUMPDEST PUSH2 0xE96 DUP1 PUSH2 0x3F4 PUSH0 CODECOPY PUSH0 RETURN INVALID PUSH1 0x80 PUSH1 0x40 MSTORE CALLVALUE DUP1 ISZERO PUSH2 0xF JUMPI PUSH0 DUP1 REVERT JUMPDEST POP PUSH1 0x4 CALLDATASIZE LT PUSH2 0x91 JUMPI PUSH0 CALLDATALOAD PUSH1 0xE0 SHR DUP1 PUSH4 0x40C10F19 GT PUSH2 0x64 JUMPI DUP1 PUSH4 0x40C10F19 EQ PUSH2 0x11D JUMPI DUP1 PUSH4 0x42966C68 EQ PUSH2 0x139 JUMPI DUP1 PUSH4 0x8DA5CB5B EQ PUSH2 0x155 JUMPI DUP1 PUSH4 0x95D89B41 EQ PUSH2 0x173 JUMPI DUP1 PUSH4 0xA9059CBB EQ PUSH2 0x191 JUMPI PUSH2 0x91 JUMP JUMPDEST DUP1 PUSH4 0x6FDDE03 EQ PUSH2 0x95 JUMPI DUP1 PUSH4 0x18160DDD EQ PUSH2 0xB3 JUMPI DUP1 PUSH4 0x23B872DD EQ PUSH2 0xD1 JUMPI DUP1 PUSH4 0x27E235E3 EQ PUSH2 0xED JUMPI JUMPDEST PUSH0 DUP1 REVERT JUMPDEST PUSH2 0x9D PUSH2 0x1AD JUMP JUMPDEST PUSH1 0x40 MLOAD PUSH2 0xAA SWAP2 SWAP1 PUSH2 0x9C5 JUMP JUMPDEST PUSH1 0x40 MLOAD DUP1 SWAP2 SUB SWAP1 RETURN JUMPDEST PUSH2 0xBB PUSH2 0x238 JUMP JUMPDEST PUSH1 0x40 MLOAD PUSH2 0xC8 SWAP2 SWAP1 PUSH2 0x9FD JUMP JUMPDEST PUSH1 0x40 MLOAD DUP1 SWAP2 SUB SWAP1 RETURN JUMPDEST PUSH2 0xEB PUSH1 0x4 DUP1 CALLDATASIZE SUB DUP2 ADD SWAP1 PUSH2 0xE6 SWAP2 SWAP1 PUSH2 0xA9E JUMP JUMPDEST PUSH2 0x23E JUMP JUMPDEST STOP JUMPDEST PUSH2 0x107 PUSH1 0x4 DUP1 CALLDATASIZE SUB DUP2 ADD SWAP1 PUSH2 0x102 SWAP2 SWAP1 PUSH2 0xAEE JUMP JUMPDEST PUSH2 0x419 JUMP JUMPDEST PUSH1 0x40 MLOAD PUSH2 0x114 SWAP2 SWAP1 PUSH2 0x9FD JUMP JUMPDEST PUSH1 0x40 MLOAD DUP1 SWAP2 SUB SWAP1 RETURN JUMPDEST PUSH2 0x137 PUSH1 0x4 DUP1 CALLDATASIZE SUB DUP2 ADD SWAP1 PUSH2 0x132 SWAP2 SWAP1 PUSH2 0xB19 JUMP JUMPDEST PUSH2 0x42E JUMP JUMPDEST STOP JUMPDEST PUSH2 0x153 PUSH1 0x4 DUP1 CALLDATASIZE SUB DUP2 ADD SWAP1 PUSH2 0x14E SWAP2 SWAP1 PUSH2 0xB57 JUMP JUMPDEST PUSH2 0x59A JUMP JUMPDEST STOP JUMPDEST PUSH2 0x15D PUSH2 0x6CA JUMP JUMPDEST PUSH1 0x40 MLOAD PUSH2 0x16A SWAP2 SWAP1 PUSH2 0xB91 JUMP JUMPDEST PUSH1 0x40 MLOAD DUP1 SWAP2 SUB SWAP1 RETURN JUMPDEST PUSH2 0x17B PUSH2 0x6EF JUMP JUMPDEST PUSH1 0x40 MLOAD PUSH2 0x188 SWAP2 SWAP1 PUSH2 0x9C5 JUMP JUMPDEST PUSH1 0x40 MLOAD DUP1 SWAP2 SUB SWAP1 RETURN JUMPDEST PUSH2 0x1AB PUSH1 0x4 DUP1 CALLDATASIZE SUB DUP2 ADD SWAP1 PUSH2 0x1A6 SWAP2 SWAP1 PUSH2 0xB19 JUMP JUMPDEST PUSH2 0x77B JUMP JUMPDEST STOP JUMPDEST PUSH0 DUP1 SLOAD PUSH2 0x1B9 SWAP1 PUSH2 0xBD7 JUMP JUMPDEST DUP1 PUSH1 0x1F ADD PUSH1 0x20 DUP1 SWAP2 DIV MUL PUSH1 0x20 ADD PUSH1 0x40 MLOAD SWAP1 DUP2 ADD PUSH1 0x40 MSTORE DUP1 SWAP3 SWAP2 SWAP1 DUP2 DUP2 MSTORE PUSH1 0x20 ADD DUP3 DUP1 SLOAD PUSH2 0x1E5 SWAP1 PUSH2 0xBD7 JUMP JUMPDEST DUP1 ISZERO PUSH2 0x230 JUMPI DUP1 PUSH1 0x1F LT PUSH2 0x207 JUMPI PUSH2 0x100 DUP1 DUP4 SLOAD DIV MUL DUP4 MSTORE SWAP2 PUSH1 0x20 ADD SWAP2 PUSH2 0x230 JUMP JUMPDEST DUP3 ADD SWAP2 SWAP1 PUSH0 MSTORE PUSH1 0x20 PUSH0 KECCAK256 SWAP1 JUMPDEST DUP2 SLOAD DUP2 MSTORE SWAP1 PUSH1 0x1 ADD SWAP1 PUSH1 0x20 ADD DUP1 DUP4 GT PUSH2 0x213 JUMPI DUP3 SWAP1 SUB PUSH1 0x1F AND DUP3 ADD SWAP2 JUMPDEST POP POP POP POP POP DUP2 JUMP JUMPDEST PUSH1 0x2 SLOAD DUP2 JUMP JUMPDEST PUSH0 PUSH20 0xFFFFFFFFFFFFFFFFFFFFFFFFFFFFFFFFFFFFFFFF AND DUP3 PUSH20 0xFFFFFFFFFFFFFFFFFFFFFFFFFFFFFFFFFFFFFFFF AND SUB PUSH2 0x2AC JUMPI PUSH1 0x40 MLOAD PUSH32 0x8C379A000000000000000000000000000000000000000000000000000000000 DUP2 MSTORE PUSH1 0x4 ADD PUSH2 0x2A3 SWAP1 PUSH2 0xC51 JUMP JUMPDEST PUSH1 0x40 MLOAD DUP1 SWAP2 SUB SWAP1 REVERT JUMPDEST PUSH0 DUP2 GT PUSH2 0x2EE JUMPI PUSH1 0x40 MLOAD PUSH32 0x8C379A000000000000000000000000000000000000000000000000000000000 DUP2 MSTORE PUSH1 0x4 ADD PUSH2 0x2E5 SWAP1 PUSH2 0xCB9 JUMP JUMPDEST PUSH1 0x40 MLOAD DUP1 SWAP2 SUB SWAP1 REVERT JUMPDEST DUP1 PUSH1 0x3 PUSH0 CALLER PUSH20 0xFFFFFFFFFFFFFFFFFFFFFFFFFFFFFFFFFFFFFFFF AND PUSH20 0xFFFFFFFFFFFFFFFFFFFFFFFFFFFFFFFFFFFFFFFF AND DUP2 MSTORE PUSH1 0x20 ADD SWAP1 DUP2 MSTORE PUSH1 0x20 ADD PUSH0 KECCAK256 SLOAD LT ISZERO PUSH2 0x36E JUMPI PUSH1 0x40 MLOAD PUSH32 0x8C379A000000000000000000000000000000000000000000000000000000000 DUP2 MSTORE PUSH1 0x4 ADD PUSH2 0x365 SWAP1 PUSH2 0xD21 JUMP JUMPDEST PUSH1 0x40 MLOAD DUP1 SWAP2 SUB SWAP1 REVERT JUMPDEST DUP1 PUSH1 0x3 PUSH0 DUP6 PUSH20 0xFFFFFFFFFFFFFFFFFFFFFFFFFFFFFFFFFFFFFFFF AND PUSH20 0xFFFFFFFFFFFFFFFFFFFFFFFFFFFFFFFFFFFFFFFF AND DUP2 MSTORE PUSH1 0x20 ADD SWAP1 DUP2 MSTORE PUSH1 0x20 ADD PUSH0 KECCAK256 PUSH0 DUP3 DUP3 SLOAD PUSH2 0x3BA SWAP2 SWAP1 PUSH2 0xD6C JUMP JUMPDEST SWAP3 POP POP DUP2 SWAP1 SSTORE POP DUP1 PUSH1 0x3 PUSH0 DUP5 PUSH20 0xFFFFFFFFFFFFFFFFFFFFFFFFFFFFFFFFFFFFFFFF AND PUSH20 0xFFFFFFFFFFFFFFFFFFFFFFFFFFFFFFFFFFFFFFFF AND DUP2 MSTORE PUSH1 0x20 ADD SWAP1 DUP2 MSTORE PUSH1 0x20 ADD PUSH0 KECCAK256 PUSH0 DUP3 DUP3 SLOAD PUSH2 0x40D SWAP2 SWAP1 PUSH2 0xD9F JUMP JUMPDEST SWAP3 POP POP DUP2 SWAP1 SSTORE POP POP POP POP JUMP JUMPDEST PUSH1 0x3 PUSH1 0x20 MSTORE DUP1 PUSH0 MSTORE PUSH1 0x40 PUSH0 KECCAK256 PUSH0 SWAP2 POP SWAP1 POP SLOAD DUP2 JUMP JUMPDEST PUSH1 0x4 PUSH0 SWAP1 SLOAD SWAP1 PUSH2 0x100 EXP SWAP1 DIV PUSH20 0xFFFFFFFFFFFFFFFFFFFFFFFFFFFFFFFFFFFFFFFF AND PUSH20 0xFFFFFFFFFFFFFFFFFFFFFFFFFFFFFFFFFFFFFFFF AND CALLER PUSH20 0xFFFFFFFFFFFFFFFFFFFFFFFFFFFFFFFFFFFFFFFF AND EQ PUSH2 0x4BD JUMPI PUSH1 0x40 MLOAD PUSH32 0x8C379A000000000000000000000000000000000000000000000000000000000 DUP2 MSTORE PUSH1 0x4 ADD PUSH2 0x4B4 SWAP1 PUSH2 0xE42 JUMP JUMPDEST PUSH1 0x40 MLOAD DUP1 SWAP2 SUB SWAP1 REVERT JUMPDEST PUSH0 PUSH20 0xFFFFFFFFFFFFFFFFFFFFFFFFFFFFFFFFFFFFFFFF AND DUP3 PUSH20 0xFFFFFFFFFFFFFFFFFFFFFFFFFFFFFFFFFFFFFFFF AND SUB PUSH2 0x52B JUMPI PUSH1 0x40 MLOAD PUSH32 0x8C379A000000000000000000000000000000000000000000000000000000000 DUP2 MSTORE PUSH1 0x4 ADD PUSH2 0x522 SWAP1 PUSH2 0xC51 JUMP JUMPDEST PUSH1 0x40 MLOAD DUP1 SWAP2 SUB SWAP1 REVERT JUMPDEST DUP1 PUSH1 0x2 PUSH0 DUP3 DUP3 SLOAD PUSH2 0x53C SWAP2 SWAP1 PUSH2 0xD9F JUMP JUMPDEST SWAP3 POP POP DUP2 SWAP1 SSTORE POP DUP1 PUSH1 0x3 PUSH0 DUP5 PUSH20 0xFFFFFFFFFFFFFFFFFFFFFFFFFFFFFFFFFFFFFFFF AND PUSH20 0xFFFFFFFFFFFFFFFFFFFFFFFFFFFFFFFFFFFFFFFF AND DUP2 MSTORE PUSH1 0x20 ADD SWAP1 DUP2 MSTORE PUSH1 0x20 ADD PUSH0 KECCAK256 PUSH0 DUP3 DUP3 SLOAD PUSH2 0x58F SWAP2 SWAP1 PUSH2 0xD9F JUMP JUMPDEST SWAP3 POP POP DUP2 SWAP1 SSTORE POP POP POP JUMP JUMPDEST PUSH0 DUP2 GT PUSH2 0x5DC JUMPI PUSH1 0x40 MLOAD PUSH32 0x8C379A000000000000000000000000000000000000000000000000000000000 DUP2 MSTORE PUSH1 0x4 ADD PUSH2 0x5D3 SWAP1 PUSH2 0xCB9 JUMP JUMPDEST PUSH1 0x40 MLOAD DUP1 SWAP2 SUB SWAP1 REVERT JUMPDEST DUP1 PUSH1 0x3 PUSH0 CALLER PUSH20 0xFFFFFFFFFFFFFFFFFFFFFFFFFFFFFFFFFFFFFFFF AND PUSH20 0xFFFFFFFFFFFFFFFFFFFFFFFFFFFFFFFFFFFFFFFF AND DUP2 MSTORE PUSH1 0x20 ADD SWAP1 DUP2 MSTORE PUSH1 0x20 ADD PUSH0 KECCAK256 SLOAD LT ISZERO PUSH2 0x65C JUMPI PUSH1 0x40 MLOAD PUSH32 0x8C379A000000000000000000000000000000000000000000000000000000000 DUP2 MSTORE PUSH1 0x4 ADD PUSH2 0x653 SWAP1 PUSH2 0xD21 JUMP JUMPDEST PUSH1 0x40 MLOAD DUP1 SWAP2 SUB SWAP1 REVERT JUMPDEST DUP1 PUSH1 0x2 PUSH0 DUP3 DUP3 SLOAD PUSH2 0x66D SWAP2 SWAP1 PUSH2 0xD6C JUMP JUMPDEST SWAP3 POP POP DUP2 SWAP1 SSTORE POP DUP1 PUSH1 0x3 PUSH0 CALLER PUSH20 0xFFFFFFFFFFFFFFFFFFFFFFFFFFFFFFFFFFFFFFFF AND PUSH20 0xFFFFFFFFFFFFFFFFFFFFFFFFFFFFFFFFFFFFFFFF AND DUP2 MSTORE PUSH1 0x20 ADD SWAP1 DUP2 MSTORE PUSH1 0x20 ADD PUSH0 KECCAK256 PUSH0 DUP3 DUP3 SLOAD PUSH2 0x6C0 SWAP2 SWAP1 PUSH2 0xD6C JUMP JUMPDEST SWAP3 POP POP DUP2 SWAP1 SSTORE POP POP JUMP JUMPDEST PUSH1 0x4 PUSH0 SWAP1 SLOAD SWAP1 PUSH2 0x100 EXP SWAP1 DIV PUSH20 0xFFFFFFFFFFFFFFFFFFFFFFFFFFFFFFFFFFFFFFFF AND DUP2 JUMP JUMPDEST PUSH1 0x1 DUP1 SLOAD PUSH2 0x6FC SWAP1 PUSH2 0xBD7 JUMP JUMPDEST DUP1 PUSH1 0x1F ADD PUSH1 0x20 DUP1 SWAP2 DIV MUL PUSH1 0x20 ADD PUSH1 0x40 MLOAD SWAP1 DUP2 ADD PUSH1 0x40 MSTORE DUP1 SWAP3 SWAP2 SWAP1 DUP2 DUP2 MSTORE PUSH1 0x20 ADD DUP3 DUP1 SLOAD PUSH2 0x728 SWAP1 PUSH2 0xBD7 JUMP JUMPDEST DUP1 ISZERO PUSH2 0x773 JUMPI DUP1 PUSH1 0x1F LT PUSH2 0x74A JUMPI PUSH2 0x100 DUP1 DUP4 SLOAD DIV MUL DUP4 MSTORE SWAP2 PUSH1 0x20 ADD SWAP2 PUSH2 0x773 JUMP JUMPDEST DUP3 ADD SWAP2 SWAP1 PUSH0 MSTORE PUSH1 0x20 PUSH0 KECCAK256 SWAP1 JUMPDEST DUP2 SLOAD DUP2 MSTORE SWAP1 PUSH1 0x1 ADD SWAP1 PUSH1 0x20 ADD DUP1 DUP4 GT PUSH2 0x756 JUMPI DUP3 SWAP1 SUB PUSH1 0x1F AND DUP3 ADD SWAP2 JUMPDEST POP POP POP POP POP DUP2 JUMP JUMPDEST PUSH0 PUSH20 0xFFFFFFFFFFFFFFFFFFFFFFFFFFFFFFFFFFFFFFFF AND DUP3 PUSH20 0xFFFFFFFFFFFFFFFFFFFFFFFFFFFFFFFFFFFFFFFF AND SUB PUSH2 0x7E9 JUMPI PUSH1 0x40 MLOAD PUSH32 0x8C379A000000000000000000000000000000000000000000000000000000000 DUP2 MSTORE PUSH1 0x4 ADD PUSH2 0x7E0 SWAP1 PUSH2 0xC51 JUMP JUMPDEST PUSH1 0x40 MLOAD DUP1 SWAP2 SUB SWAP1 REVERT JUMPDEST PUSH0 DUP2 GT PUSH2 0x82B JUMPI PUSH1 0x40 MLOAD PUSH32 0x8C379A000000000000000000000000000000000000000000000000000000000 DUP2 MSTORE PUSH1 0x4 ADD PUSH2 0x822 SWAP1 PUSH2 0xCB9 JUMP JUMPDEST PUSH1 0x40 MLOAD DUP1 SWAP2 SUB SWAP1 REVERT JUMPDEST DUP1 PUSH1 0x3 PUSH0 CALLER PUSH20 0xFFFFFFFFFFFFFFFFFFFFFFFFFFFFFFFFFFFFFFFF AND PUSH20 0xFFFFFFFFFFFFFFFFFFFFFFFFFFFFFFFFFFFFFFFF AND DUP2 MSTORE PUSH1 0x20 ADD SWAP1 DUP2 MSTORE PUSH1 0x20 ADD PUSH0 KECCAK256 SLOAD LT ISZERO PUSH2 0x8AB JUMPI PUSH1 0x40 MLOAD PUSH32 0x8C379A000000000000000000000000000000000000000000000000000000000 DUP2 MSTORE PUSH1 0x4 ADD PUSH2 0x8A2 SWAP1 PUSH2 0xD21 JUMP JUMPDEST PUSH1 0x40 MLOAD DUP1 SWAP2 SUB SWAP1 REVERT JUMPDEST DUP1 PUSH1 0x3 PUSH0 CALLER PUSH20 0xFFFFFFFFFFFFFFFFFFFFFFFFFFFFFFFFFFFFFFFF AND PUSH20 0xFFFFFFFFFFFFFFFFFFFFFFFFFFFFFFFFFFFFFFFF AND DUP2 MSTORE PUSH1 0x20 ADD SWAP1 DUP2 MSTORE PUSH1 0x20 ADD PUSH0 KECCAK256 PUSH0 DUP3 DUP3 SLOAD PUSH2 0x8F7 SWAP2 SWAP1 PUSH2 0xD6C JUMP JUMPDEST SWAP3 POP POP DUP2 SWAP1 SSTORE POP DUP1 PUSH1 0x3 PUSH0 DUP5 PUSH20 0xFFFFFFFFFFFFFFFFFFFFFFFFFFFFFFFFFFFFFFFF AND PUSH20 0xFFFFFFFFFFFFFFFFFFFFFFFFFFFFFFFFFFFFFFFF AND DUP2 MSTORE PUSH1 0x20 ADD SWAP1 DUP2 MSTORE PUSH1 0x20 ADD PUSH0 KECCAK256 PUSH0 DUP3 DUP3 SLOAD PUSH2 0x94A SWAP2 SWAP1 PUSH2 0xD9F JUMP JUMPDEST SWAP3 POP POP DUP2 SWAP1 SSTORE POP POP POP JUMP JUMPDEST PUSH0 DUP2 MLOAD SWAP1 POP SWAP2 SWAP1 POP JUMP JUMPDEST PUSH0 DUP3 DUP3 MSTORE PUSH1 0x20 DUP3 ADD SWAP1 POP SWAP3 SWAP2 POP POP JUMP JUMPDEST DUP3 DUP2 DUP4 MCOPY PUSH0 DUP4 DUP4 ADD MSTORE POP POP POP JUMP JUMPDEST PUSH0 PUSH1 0x1F NOT PUSH1 0x1F DUP4 ADD AND SWAP1 POP SWAP2 SWAP1 POP JUMP JUMPDEST PUSH0 PUSH2 0x997 DUP3 PUSH2 0x955 JUMP JUMPDEST PUSH2 0x9A1 DUP2 DUP6 PUSH2 0x95F JUMP JUMPDEST SWAP4 POP PUSH2 0x9B1 DUP2 DUP6 PUSH1 0x20 DUP7 ADD PUSH2 0x96F JUMP JUMPDEST PUSH2 0x9BA DUP2 PUSH2 0x97D JUMP JUMPDEST DUP5 ADD SWAP2 POP POP SWAP3 SWAP2 POP POP JUMP JUMPDEST PUSH0 PUSH1 0x20 DUP3 ADD SWAP1 POP DUP2 DUP2 SUB PUSH0 DUP4 ADD MSTORE PUSH2 0x9DD DUP2 DUP5 PUSH2 0x98D JUMP JUMPDEST SWAP1 POP SWAP3 SWAP2 POP POP JUMP JUMPDEST PUSH0 DUP2 SWAP1 POP SWAP2 SWAP1 POP JUMP JUMPDEST PUSH2 0x9F7 DUP2 PUSH2 0x9E5 JUMP JUMPDEST DUP3 MSTORE POP POP JUMP JUMPDEST PUSH0 PUSH1 0x20 DUP3 ADD SWAP1 POP PUSH2 0xA10 PUSH0 DUP4 ADD DUP5 PUSH2 0x9EE JUMP JUMPDEST SWAP3 SWAP2 POP POP JUMP JUMPDEST PUSH0 DUP1 REVERT JUMPDEST PUSH0 PUSH20 0xFFFFFFFFFFFFFFFFFFFFFFFFFFFFFFFFFFFFFFFF DUP3 AND SWAP1 POP SWAP2 SWAP1 POP JUMP JUMPDEST PUSH0 PUSH2 0xA43 DUP3 PUSH2 0xA1A JUMP JUMPDEST SWAP1 POP SWAP2 SWAP1 POP JUMP JUMPDEST PUSH2 0xA53 DUP2 PUSH2 0xA39 JUMP JUMPDEST DUP2 EQ PUSH2 0xA5D JUMPI PUSH0 DUP1 REVERT JUMPDEST POP JUMP JUMPDEST PUSH0 DUP2 CALLDATALOAD SWAP1 POP PUSH2 0xA6E DUP2 PUSH2 0xA4A JUMP JUMPDEST SWAP3 SWAP2 POP POP JUMP JUMPDEST PUSH2 0xA7D DUP2 PUSH2 0x9E5 JUMP JUMPDEST DUP2 EQ PUSH2 0xA87 JUMPI PUSH0 DUP1 REVERT JUMPDEST POP JUMP JUMPDEST PUSH0 DUP2 CALLDATALOAD SWAP1 POP PUSH2 0xA98 DUP2 PUSH2 0xA74 JUMP JUMPDEST SWAP3 SWAP2 POP POP JUMP JUMPDEST PUSH0 DUP1 PUSH0 PUSH1 0x60 DUP5 DUP7 SUB SLT ISZERO PUSH2 0xAB5 JUMPI PUSH2 0xAB4 PUSH2 0xA16 JUMP JUMPDEST JUMPDEST PUSH0 PUSH2 0xAC2 DUP7 DUP3 DUP8 ADD PUSH2 0xA60 JUMP JUMPDEST SWAP4 POP POP PUSH1 0x20 PUSH2 0xAD3 DUP7 DUP3 DUP8 ADD PUSH2 0xA60 JUMP JUMPDEST SWAP3 POP POP PUSH1 0x40 PUSH2 0xAE4 DUP7 DUP3 DUP8 ADD PUSH2 0xA8A JUMP JUMPDEST SWAP2 POP POP SWAP3 POP SWAP3 POP SWAP3 JUMP JUMPDEST PUSH0 PUSH1 0x20 DUP3 DUP5 SUB SLT ISZERO PUSH2 0xB03 JUMPI PUSH2 0xB02 PUSH2 0xA16 JUMP JUMPDEST JUMPDEST PUSH0 PUSH2 0xB10 DUP5 DUP3 DUP6 ADD PUSH2 0xA60 JUMP JUMPDEST SWAP2 POP POP SWAP3 SWAP2 POP POP JUMP JUMPDEST PUSH0 DUP1 PUSH1 0x40 DUP4 DUP6 SUB SLT ISZERO PUSH2 0xB2F JUMPI PUSH2 0xB2E PUSH2 0xA16 JUMP JUMPDEST JUMPDEST PUSH0 PUSH2 0xB3C DUP6 DUP3 DUP7 ADD PUSH2 0xA60 JUMP JUMPDEST SWAP3 POP POP PUSH1 0x20 PUSH2 0xB4D DUP6 DUP3 DUP7 ADD PUSH2 0xA8A JUMP JUMPDEST SWAP2 POP POP SWAP3 POP SWAP3 SWAP1 POP JUMP JUMPDEST PUSH0 PUSH1 0x20 DUP3 DUP5 SUB SLT ISZERO PUSH2 0xB6C JUMPI PUSH2 0xB6B PUSH2 0xA16 JUMP JUMPDEST JUMPDEST PUSH0 PUSH2 0xB79 DUP5 DUP3 DUP6 ADD PUSH2 0xA8A JUMP JUMPDEST SWAP2 POP POP SWAP3 SWAP2 POP POP JUMP JUMPDEST PUSH2 0xB8B DUP2 PUSH2 0xA39 JUMP JUMPDEST DUP3 MSTORE POP POP JUMP JUMPDEST PUSH0 PUSH1 0x20 DUP3 ADD SWAP1 POP PUSH2 0xBA4 PUSH0 DUP4 ADD DUP5 PUSH2 0xB82 JUMP JUMPDEST SWAP3 SWAP2 POP POP JUMP JUMPDEST PUSH32 0x4E487B7100000000000000000000000000000000000000000000000000000000 PUSH0 MSTORE PUSH1 0x22 PUSH1 0x4 MSTORE PUSH1 0x24 PUSH0 REVERT JUMPDEST PUSH0 PUSH1 0x2 DUP3 DIV SWAP1 POP PUSH1 0x1 DUP3 AND DUP1 PUSH2 0xBEE JUMPI PUSH1 0x7F DUP3 AND SWAP2 POP JUMPDEST PUSH1 0x20 DUP3 LT DUP2 SUB PUSH2 0xC01 JUMPI PUSH2 0xC00 PUSH2 0xBAA JUMP JUMPDEST JUMPDEST POP SWAP2 SWAP1 POP JUMP JUMPDEST PUSH32 0x496E76616C696420616464726573730000000000000000000000000000000000 PUSH0 DUP3 ADD MSTORE POP JUMP JUMPDEST PUSH0 PUSH2 0xC3B PUSH1 0xF DUP4 PUSH2 0x95F JUMP JUMPDEST SWAP2 POP PUSH2 0xC46 DUP3 PUSH2 0xC07 JUMP JUMPDEST PUSH1 0x20 DUP3 ADD SWAP1 POP SWAP2 SWAP1 POP JUMP JUMPDEST PUSH0 PUSH1 0x20 DUP3 ADD SWAP1 POP DUP2 DUP2 SUB PUSH0 DUP4 ADD MSTORE PUSH2 0xC68 DUP2 PUSH2 0xC2F JUMP JUMPDEST SWAP1 POP SWAP2 SWAP1 POP JUMP JUMPDEST PUSH32 0x496E76616C696420616D6F756E74000000000000000000000000000000000000 PUSH0 DUP3 ADD MSTORE POP JUMP JUMPDEST PUSH0 PUSH2 0xCA3 PUSH1 0xE DUP4 PUSH2 0x95F JUMP JUMPDEST SWAP2 POP PUSH2 0xCAE DUP3 PUSH2 0xC6F JUMP JUMPDEST PUSH1 0x20 DUP3 ADD SWAP1 POP SWAP2 SWAP1 POP JUMP JUMPDEST PUSH0 PUSH1 0x20 DUP3 ADD SWAP1 POP DUP2 DUP2 SUB PUSH0 DUP4 ADD MSTORE PUSH2 0xCD0 DUP2 PUSH2 0xC97 JUMP JUMPDEST SWAP1 POP SWAP2 SWAP1 POP JUMP JUMPDEST PUSH32 0x496E73756666696369656E742062616C616E6365000000000000000000000000 PUSH0 DUP3 ADD MSTORE POP JUMP JUMPDEST PUSH0 PUSH2 0xD0B PUSH1 0x14 DUP4 PUSH2 0x95F JUMP JUMPDEST SWAP2 POP PUSH2 0xD16 DUP3 PUSH2 0xCD7 JUMP JUMPDEST PUSH1 0x20 DUP3 ADD SWAP1 POP SWAP2 SWAP1 POP JUMP JUMPDEST PUSH0 PUSH1 0x20 DUP3 ADD SWAP1 POP DUP2 DUP2 SUB PUSH0 DUP4 ADD MSTORE PUSH2 0xD38 DUP2 PUSH2 0xCFF JUMP JUMPDEST SWAP1 POP SWAP2 SWAP1 POP JUMP JUMPDEST PUSH32 0x4E487B7100000000000000000000000000000000000000000000000000000000 PUSH0 MSTORE PUSH1 0x11 PUSH1 0x4 MSTORE PUSH1 0x24 PUSH0 REVERT JUMPDEST PUSH0 PUSH2 0xD76 DUP3 PUSH2 0x9E5 JUMP JUMPDEST SWAP2 POP PUSH2 0xD81 DUP4 PUSH2 0x9E5 JUMP JUMPDEST SWAP3 POP DUP3 DUP3 SUB SWAP1 POP DUP2 DUP2 GT ISZERO PUSH2 0xD99 JUMPI PUSH2 0xD98 PUSH2 0xD3F JUMP JUMPDEST JUMPDEST SWAP3 SWAP2 POP POP JUMP JUMPDEST PUSH0 PUSH2 0xDA9 DUP3 PUSH2 0x9E5 JUMP JUMPDEST SWAP2 POP PUSH2 0xDB4 DUP4 PUSH2 0x9E5 JUMP JUMPDEST SWAP3 POP DUP3 DUP3 ADD SWAP1 POP DUP1 DUP3 GT ISZERO PUSH2 0xDCC JUMPI PUSH2 0xDCB PUSH2 0xD3F JUMP JUMPDEST JUMPDEST SWAP3 SWAP2 POP POP JUMP JUMPDEST PUSH32 0x4F6E6C7920636F6E7472616374206F776E65722063616E2063616C6C20746869 PUSH0 DUP3 ADD MSTORE PUSH32 0x732066756E6374696F6E00000000000000000000000000000000000000000000 PUSH1 0x20 DUP3 ADD MSTORE POP JUMP JUMPDEST PUSH0 PUSH2 0xE2C PUSH1 0x2A DUP4 PUSH2 0x95F JUMP JUMPDEST SWAP2 POP PUSH2 0xE37 DUP3 PUSH2 0xDD2 JUMP JUMPDEST PUSH1 0x40 DUP3 ADD SWAP1 POP SWAP2 SWAP1 POP JUMP JUMPDEST PUSH0 PUSH1 0x20 DUP3 ADD SWAP1 POP DUP2 DUP2 SUB PUSH0 DUP4 ADD MSTORE PUSH2 0xE59 DUP2 PUSH2 0xE20 JUMP JUMPDEST SWAP1 POP SWAP2 SWAP1 POP JUMP INVALID LOG2 PUSH5 0x6970667358 0x22 SLT KECCAK256 STATICCALL XOR 0xE1 PUSH23 0x7F3A83A96D0D3FD93D4DEF0F255A20BAF1A4CEE19393CA EXP 0xD6 LT PUSH30 0xE864736F6C634300081A0033000000000000000000000000000000000000 "
				},
				"gasEstimates": {
					"creation": {
						"codeDepositCost": "746800",
						"executionCost": "infinite",
						"totalCost": "infinite"
					},
					"external": {
						"balances(address)": "2869",
						"burn(uint256)": "infinite",
						"mint(address,uint256)": "infinite",
						"name()": "infinite",
						"owner()": "2552",
						"symbol()": "infinite",
						"totalSupply()": "2448",
						"transfer(address,uint256)": "infinite",
						"transferFrom(address,address,uint256)": "infinite"
					}
				},
				"methodIdentifiers": {
					"balances(address)": "27e235e3",
					"burn(uint256)": "42966c68",
					"mint(address,uint256)": "40c10f19",
					"name()": "06fdde03",
					"owner()": "8da5cb5b",
					"symbol()": "95d89b41",
					"totalSupply()": "18160ddd",
					"transfer(address,uint256)": "a9059cbb",
					"transferFrom(address,address,uint256)": "23b872dd"
				}
			},
			"storageLayout": {
				"storage": [
					{
						"astId": 3,
						"contract": "contracts/ShivamRainCoin.sol:MyToken",
						"label": "name",
						"offset": 0,
						"slot": "0",
						"type": "t_string_storage"
					},
					{
						"astId": 5,
						"contract": "contracts/ShivamRainCoin.sol:MyToken",
						"label": "symbol",
						"offset": 0,
						"slot": "1",
						"type": "t_string_storage"
					},
					{
						"astId": 7,
						"contract": "contracts/ShivamRainCoin.sol:MyToken",
						"label": "totalSupply",
						"offset": 0,
						"slot": "2",
						"type": "t_uint256"
					},
					{
						"astId": 11,
						"contract": "contracts/ShivamRainCoin.sol:MyToken",
						"label": "balances",
						"offset": 0,
						"slot": "3",
						"type": "t_mapping(t_address,t_uint256)"
					},
					{
						"astId": 13,
						"contract": "contracts/ShivamRainCoin.sol:MyToken",
						"label": "owner",
						"offset": 0,
						"slot": "4",
						"type": "t_address"
					}
				],
				"types": {
					"t_address": {
						"encoding": "inplace",
						"label": "address",
						"numberOfBytes": "20"
					},
					"t_mapping(t_address,t_uint256)": {
						"encoding": "mapping",
						"key": "t_address",
						"label": "mapping(address => uint256)",
						"numberOfBytes": "32",
						"value": "t_uint256"
					},
					"t_string_storage": {
						"encoding": "bytes",
						"label": "string",
						"numberOfBytes": "32"
					},
					"t_uint256": {
						"encoding": "inplace",
						"label": "uint256",
						"numberOfBytes": "32"
					}
				}
			},
			"userdoc": {
				"kind": "user",
				"methods": {},
				"version": 1
			}
		}
	}
}